{
    "contractName": "NFTMarketplace",
    "abi": [
        {
            "inputs": [],
            "stateMutability": "nonpayable",
            "type": "constructor"
        },
        {
            "anonymous": false,
            "inputs": [
                {
                    "indexed": true,
                    "internalType": "address",
                    "name": "owner",
                    "type": "address"
                },
                {
                    "indexed": true,
                    "internalType": "address",
                    "name": "approved",
                    "type": "address"
                },
                {
                    "indexed": true,
                    "internalType": "uint256",
                    "name": "tokenId",
                    "type": "uint256"
                }
            ],
            "name": "Approval",
            "type": "event"
        },
        {
            "anonymous": false,
            "inputs": [
                {
                    "indexed": true,
                    "internalType": "address",
                    "name": "owner",
                    "type": "address"
                },
                {
                    "indexed": true,
                    "internalType": "address",
                    "name": "operator",
                    "type": "address"
                },
                {
                    "indexed": false,
                    "internalType": "bool",
                    "name": "approved",
                    "type": "bool"
                }
            ],
            "name": "ApprovalForAll",
            "type": "event"
        },
        {
            "anonymous": false,
            "inputs": [
                {
                    "indexed": false,
                    "internalType": "uint256",
                    "name": "tokenId",
                    "type": "uint256"
                },
                {
                    "indexed": false,
                    "internalType": "address payable",
                    "name": "seller",
                    "type": "address"
                },
                {
                    "indexed": false,
                    "internalType": "address payable",
                    "name": "owner",
                    "type": "address"
                },
                {
                    "indexed": false,
                    "internalType": "uint256",
                    "name": "price",
                    "type": "uint256"
                },
                {
                    "indexed": false,
                    "internalType": "bool",
                    "name": "currentlyListed",
                    "type": "bool"
                }
            ],
            "name": "TokenListedSuccess",
            "type": "event"
        },
        {
            "anonymous": false,
            "inputs": [
                {
                    "indexed": true,
                    "internalType": "address",
                    "name": "from",
                    "type": "address"
                },
                {
                    "indexed": true,
                    "internalType": "address",
                    "name": "to",
                    "type": "address"
                },
                {
                    "indexed": true,
                    "internalType": "uint256",
                    "name": "tokenId",
                    "type": "uint256"
                }
            ],
            "name": "Transfer",
            "type": "event"
        },
        {
            "inputs": [
                {
                    "internalType": "address",
                    "name": "to",
                    "type": "address"
                },
                {
                    "internalType": "uint256",
                    "name": "tokenId",
                    "type": "uint256"
                }
            ],
            "name": "approve",
            "outputs": [],
            "stateMutability": "nonpayable",
            "type": "function"
        },
        {
            "inputs": [
                {
                    "internalType": "address",
                    "name": "owner",
                    "type": "address"
                }
            ],
            "name": "balanceOf",
            "outputs": [
                {
                    "internalType": "uint256",
                    "name": "",
                    "type": "uint256"
                }
            ],
            "stateMutability": "view",
            "type": "function"
        },
        {
            "inputs": [
                {
                    "internalType": "string",
                    "name": "tokenURI",
                    "type": "string"
                },
                {
                    "internalType": "uint256",
                    "name": "price",
                    "type": "uint256"
                }
            ],
            "name": "createToken",
            "outputs": [
                {
                    "internalType": "uint256",
                    "name": "",
                    "type": "uint256"
                }
            ],
            "stateMutability": "payable",
            "type": "function"
        },
        {
            "inputs": [
                {
                    "internalType": "uint256",
                    "name": "tokenId",
                    "type": "uint256"
                }
            ],
            "name": "executeSale",
            "outputs": [],
            "stateMutability": "payable",
            "type": "function"
        },
        {
            "inputs": [],
            "name": "getAllNFTs",
            "outputs": [
                {
                    "components": [
                        {
                            "internalType": "uint256",
                            "name": "tokenId",
                            "type": "uint256"
                        },
                        {
                            "internalType": "address payable",
                            "name": "owner",
                            "type": "address"
                        },
                        {
                            "internalType": "address payable",
                            "name": "seller",
                            "type": "address"
                        },
                        {
                            "internalType": "uint256",
                            "name": "price",
                            "type": "uint256"
                        },
                        {
                            "internalType": "bool",
                            "name": "currentlyListed",
                            "type": "bool"
                        }
                    ],
                    "internalType": "struct NFTMarketplace.ListedToken[]",
                    "name": "",
                    "type": "tuple[]"
                }
            ],
            "stateMutability": "view",
            "type": "function"
        },
        {
            "inputs": [
                {
                    "internalType": "uint256",
                    "name": "tokenId",
                    "type": "uint256"
                }
            ],
            "name": "getApproved",
            "outputs": [
                {
                    "internalType": "address",
                    "name": "",
                    "type": "address"
                }
            ],
            "stateMutability": "view",
            "type": "function"
        },
        {
            "inputs": [],
            "name": "getCurrentToken",
            "outputs": [
                {
                    "internalType": "uint256",
                    "name": "",
                    "type": "uint256"
                }
            ],
            "stateMutability": "view",
            "type": "function"
        },
        {
            "inputs": [],
            "name": "getListPrice",
            "outputs": [
                {
                    "internalType": "uint256",
                    "name": "",
                    "type": "uint256"
                }
            ],
            "stateMutability": "view",
            "type": "function"
        },
        {
            "inputs": [],
            "name": "getListedIdToListedToken",
            "outputs": [
                {
                    "components": [
                        {
                            "internalType": "uint256",
                            "name": "tokenId",
                            "type": "uint256"
                        },
                        {
                            "internalType": "address payable",
                            "name": "owner",
                            "type": "address"
                        },
                        {
                            "internalType": "address payable",
                            "name": "seller",
                            "type": "address"
                        },
                        {
                            "internalType": "uint256",
                            "name": "price",
                            "type": "uint256"
                        },
                        {
                            "internalType": "bool",
                            "name": "currentlyListed",
                            "type": "bool"
                        }
                    ],
                    "internalType": "struct NFTMarketplace.ListedToken",
                    "name": "",
                    "type": "tuple"
                }
            ],
            "stateMutability": "view",
            "type": "function"
        },
        {
            "inputs": [
                {
                    "internalType": "uint256",
                    "name": "tokenId",
                    "type": "uint256"
                }
            ],
            "name": "getListedTokenForId",
            "outputs": [
                {
                    "components": [
                        {
                            "internalType": "uint256",
                            "name": "tokenId",
                            "type": "uint256"
                        },
                        {
                            "internalType": "address payable",
                            "name": "owner",
                            "type": "address"
                        },
                        {
                            "internalType": "address payable",
                            "name": "seller",
                            "type": "address"
                        },
                        {
                            "internalType": "uint256",
                            "name": "price",
                            "type": "uint256"
                        },
                        {
                            "internalType": "bool",
                            "name": "currentlyListed",
                            "type": "bool"
                        }
                    ],
                    "internalType": "struct NFTMarketplace.ListedToken",
                    "name": "",
                    "type": "tuple"
                }
            ],
            "stateMutability": "view",
            "type": "function"
        },
        {
            "inputs": [],
            "name": "getMyNFTs",
            "outputs": [
                {
                    "components": [
                        {
                            "internalType": "uint256",
                            "name": "tokenId",
                            "type": "uint256"
                        },
                        {
                            "internalType": "address payable",
                            "name": "owner",
                            "type": "address"
                        },
                        {
                            "internalType": "address payable",
                            "name": "seller",
                            "type": "address"
                        },
                        {
                            "internalType": "uint256",
                            "name": "price",
                            "type": "uint256"
                        },
                        {
                            "internalType": "bool",
                            "name": "currentlyListed",
                            "type": "bool"
                        }
                    ],
                    "internalType": "struct NFTMarketplace.ListedToken[]",
                    "name": "",
                    "type": "tuple[]"
                }
            ],
            "stateMutability": "view",
            "type": "function"
        },
        {
            "inputs": [
                {
                    "internalType": "address",
                    "name": "owner",
                    "type": "address"
                },
                {
                    "internalType": "address",
                    "name": "operator",
                    "type": "address"
                }
            ],
            "name": "isApprovedForAll",
            "outputs": [
                {
                    "internalType": "bool",
                    "name": "",
                    "type": "bool"
                }
            ],
            "stateMutability": "view",
            "type": "function"
        },
        {
            "inputs": [],
            "name": "name",
            "outputs": [
                {
                    "internalType": "string",
                    "name": "",
                    "type": "string"
                }
            ],
            "stateMutability": "view",
            "type": "function"
        },
        {
            "inputs": [
                {
                    "internalType": "uint256",
                    "name": "tokenId",
                    "type": "uint256"
                }
            ],
            "name": "ownerOf",
            "outputs": [
                {
                    "internalType": "address",
                    "name": "",
                    "type": "address"
                }
            ],
            "stateMutability": "view",
            "type": "function"
        },
        {
            "inputs": [
                {
                    "internalType": "address",
                    "name": "from",
                    "type": "address"
                },
                {
                    "internalType": "address",
                    "name": "to",
                    "type": "address"
                },
                {
                    "internalType": "uint256",
                    "name": "tokenId",
                    "type": "uint256"
                }
            ],
            "name": "safeTransferFrom",
            "outputs": [],
            "stateMutability": "nonpayable",
            "type": "function"
        },
        {
            "inputs": [
                {
                    "internalType": "address",
                    "name": "from",
                    "type": "address"
                },
                {
                    "internalType": "address",
                    "name": "to",
                    "type": "address"
                },
                {
                    "internalType": "uint256",
                    "name": "tokenId",
                    "type": "uint256"
                },
                {
                    "internalType": "bytes",
                    "name": "data",
                    "type": "bytes"
                }
            ],
            "name": "safeTransferFrom",
            "outputs": [],
            "stateMutability": "nonpayable",
            "type": "function"
        },
        {
            "inputs": [
                {
                    "internalType": "address",
                    "name": "operator",
                    "type": "address"
                },
                {
                    "internalType": "bool",
                    "name": "approved",
                    "type": "bool"
                }
            ],
            "name": "setApprovalForAll",
            "outputs": [],
            "stateMutability": "nonpayable",
            "type": "function"
        },
        {
            "inputs": [
                {
                    "internalType": "bytes4",
                    "name": "interfaceId",
                    "type": "bytes4"
                }
            ],
            "name": "supportsInterface",
            "outputs": [
                {
                    "internalType": "bool",
                    "name": "",
                    "type": "bool"
                }
            ],
            "stateMutability": "view",
            "type": "function"
        },
        {
            "inputs": [],
            "name": "symbol",
            "outputs": [
                {
                    "internalType": "string",
                    "name": "",
                    "type": "string"
                }
            ],
            "stateMutability": "view",
            "type": "function"
        },
        {
            "inputs": [
                {
                    "internalType": "uint256",
                    "name": "tokenId",
                    "type": "uint256"
                }
            ],
            "name": "tokenURI",
            "outputs": [
                {
                    "internalType": "string",
                    "name": "",
                    "type": "string"
                }
            ],
            "stateMutability": "view",
            "type": "function"
        },
        {
            "inputs": [
                {
                    "internalType": "address",
                    "name": "from",
                    "type": "address"
                },
                {
                    "internalType": "address",
                    "name": "to",
                    "type": "address"
                },
                {
                    "internalType": "uint256",
                    "name": "tokenId",
                    "type": "uint256"
                }
            ],
            "name": "transferFrom",
            "outputs": [],
            "stateMutability": "nonpayable",
            "type": "function"
        },
        {
            "inputs": [
                {
                    "internalType": "uint256",
                    "name": "_listPrice",
                    "type": "uint256"
                }
            ],
            "name": "updateListPrice",
            "outputs": [],
            "stateMutability": "payable",
            "type": "function"
        }
    ],
    "bytecode": "6080604052662386f26fc10000600a553480156200001c57600080fd5b506040518060400160405280600e81526020016d4e46544d61726b6574706c61636560901b815250604051806040016040528060048152602001634e46544d60e01b815250816000908162000072919062000141565b50600162000081828262000141565b5050600980546001600160a01b03191633179055506200020d565b634e487b7160e01b600052604160045260246000fd5b600181811c90821680620000c757607f821691505b602082108103620000e857634e487b7160e01b600052602260045260246000fd5b50919050565b601f8211156200013c57600081815260208120601f850160051c81016020861015620001175750805b601f850160051c820191505b81811015620001385782815560010162000123565b5050505b505050565b81516001600160401b038111156200015d576200015d6200009c565b62000175816200016e8454620000b2565b84620000ee565b602080601f831160018114620001ad5760008415620001945750858301515b600019600386901b1c1916600185901b17855562000138565b600085815260208120601f198616915b82811015620001de57888601518255948401946001909101908401620001bd565b5085821015620001fd5787850151600019600388901b60f8161c191681555b5050505050600190811b01905550565b612196806200021d6000396000f3fe6080604052600436106101355760003560e01c806372b3b620116100ab578063b88d4fde1161006f578063b88d4fde14610349578063c322579c14610369578063c87b56dd1461037c578063e0391b091461039c578063e985e9c5146103b1578063ef2d1746146103fa57600080fd5b806372b3b620146102ce5780638e264590146102e157806395d89b41146103015780639b1225c414610316578063a22cb4651461032957600080fd5b806342842e0e116100fd57806342842e0e1461020b578063492be1951461022b578063629cb2e41461024d5780636352211e1461026f57806368f1945f1461028f57806370a08231146102ae57600080fd5b806301ffc9a71461013a57806306fdde031461016f578063081812fc14610191578063095ea7b3146101c957806323b872dd146101eb575b600080fd5b34801561014657600080fd5b5061015a610155366004611a9e565b61040f565b60405190151581526020015b60405180910390f35b34801561017b57600080fd5b50610184610461565b6040516101669190611b0b565b34801561019d57600080fd5b506101b16101ac366004611b1e565b6104f3565b6040516001600160a01b039091168152602001610166565b3480156101d557600080fd5b506101e96101e4366004611b53565b61051a565b005b3480156101f757600080fd5b506101e9610206366004611b7d565b610634565b34801561021757600080fd5b506101e9610226366004611b7d565b610665565b34801561023757600080fd5b50610240610680565b6040516101669190611bf9565b34801561025957600080fd5b506102626106f7565b6040516101669190611c07565b34801561027b57600080fd5b506101b161028a366004611b1e565b610920565b34801561029b57600080fd5b50600a545b604051908152602001610166565b3480156102ba57600080fd5b506102a06102c9366004611c55565b610980565b6102a06102dc366004611cfc565b610a06565b3480156102ed57600080fd5b506102406102fc366004611b1e565b610a48565b34801561030d57600080fd5b50610184610ab2565b6101e9610324366004611b1e565b610ac1565b34801561033557600080fd5b506101e9610344366004611d55565b610c1a565b34801561035557600080fd5b506101e9610364366004611d91565b610c29565b6101e9610377366004611b1e565b610c5b565b34801561038857600080fd5b50610184610397366004611b1e565b610cca565b3480156103a857600080fd5b50610262610dda565b3480156103bd57600080fd5b5061015a6103cc366004611e0d565b6001600160a01b03918216600090815260056020908152604080832093909416825291909152205460ff1690565b34801561040657600080fd5b506102a0610f05565b60006001600160e01b031982166380ac58cd60e01b148061044057506001600160e01b03198216635b5e139f60e01b145b8061045b57506301ffc9a760e01b6001600160e01b03198316145b92915050565b60606000805461047090611e40565b80601f016020809104026020016040519081016040528092919081815260200182805461049c90611e40565b80156104e95780601f106104be576101008083540402835291602001916104e9565b820191906000526020600020905b8154815290600101906020018083116104cc57829003601f168201915b5050505050905090565b60006104fe82610f15565b506000908152600460205260409020546001600160a01b031690565b600061052582610920565b9050806001600160a01b0316836001600160a01b0316036105975760405162461bcd60e51b815260206004820152602160248201527f4552433732313a20617070726f76616c20746f2063757272656e74206f776e656044820152603960f91b60648201526084015b60405180910390fd5b336001600160a01b03821614806105b357506105b381336103cc565b6106255760405162461bcd60e51b815260206004820152603d60248201527f4552433732313a20617070726f76652063616c6c6572206973206e6f7420746f60448201527f6b656e206f776e6572206f7220617070726f76656420666f7220616c6c000000606482015260840161058e565b61062f8383610f77565b505050565b61063e3382610fe5565b61065a5760405162461bcd60e51b815260040161058e90611e7a565b61062f838383611063565b61062f83838360405180602001604052806000815250610c29565b610688611a5a565b600061069360075490565b6000908152600b6020908152604091829020825160a0810184528154815260018201546001600160a01b03908116938201939093526002820154909216928201929092526003820154606082015260049091015460ff161515608082015292915050565b6060600061070460075490565b905060008060005b8381101561079c5733600b6000610724846001611edd565b81526020810191909152604001600020600101546001600160a01b03161480610777575033600b6000610758846001611edd565b81526020810191909152604001600020600201546001600160a01b0316145b1561078a578261078681611ef0565b9350505b8061079481611ef0565b91505061070c565b5060008267ffffffffffffffff8111156107b8576107b8611c70565b6040519080825280602002602001820160405280156107f157816020015b6107de611a5a565b8152602001906001900390816107d65790505b50905060005b848110156109175733600b600061080f846001611edd565b81526020810191909152604001600020600101546001600160a01b03161480610862575033600b6000610843846001611edd565b81526020810191909152604001600020600201546001600160a01b0316145b15610905576000610874826001611edd565b6000818152600b6020908152604091829020825160a0810184528154815260018201546001600160a01b039081169382019390935260028201549092169282019290925260038201546060820152600482015460ff1615156080820152855192935090918590879081106108ea576108ea611f09565b6020908102919091010152610900600186611edd565b945050505b8061090f81611ef0565b9150506107f7565b50949350505050565b6000818152600260205260408120546001600160a01b03168061045b5760405162461bcd60e51b8152602060048201526018602482015277115490cdcc8c4e881a5b9d985b1a59081d1bdad95b88125160421b604482015260640161058e565b60006001600160a01b0382166109ea5760405162461bcd60e51b815260206004820152602960248201527f4552433732313a2061646472657373207a65726f206973206e6f7420612076616044820152683634b21037bbb732b960b91b606482015260840161058e565b506001600160a01b031660009081526003602052604090205490565b6000610a16600780546001019055565b6000610a2160075490565b9050610a2d33826111d4565b610a3781856111ee565b610a418184611281565b9392505050565b610a50611a5a565b506000908152600b6020908152604091829020825160a0810184528154815260018201546001600160a01b03908116938201939093526002820154909216928201929092526003820154606082015260049091015460ff161515608082015290565b60606001805461047090611e40565b6000818152600b6020526040902060038101546002909101546001600160a01b0316348214610b4f5760405162461bcd60e51b815260206004820152603460248201527f506c65617365207375626d6974207468652061736b696e672070726963652074604482015273379031b7b6b83632ba32903a34329037b93232b960611b606482015260840161058e565b6000838152600b6020526040902060048101805460ff1916600117905560020180546001600160a01b03191633179055610b8d600880546001019055565b610b98303385611063565b610ba2308461051a565b600954600a546040516001600160a01b039092169181156108fc0291906000818181858888f19350505050158015610bde573d6000803e3d6000fd5b506040516001600160a01b038216903480156108fc02916000818181858888f19350505050158015610c14573d6000803e3d6000fd5b50505050565b610c25338383611426565b5050565b610c333383610fe5565b610c4f5760405162461bcd60e51b815260040161058e90611e7a565b610c14848484846114f4565b6009546001600160a01b03163314610cc55760405162461bcd60e51b815260206004820152602760248201527f4f6e6c79206f776e65722063616e2075706461746520746865206c697374696e6044820152666720707269636560c81b606482015260840161058e565b600a55565b6060610cd582610f15565b60008281526006602052604081208054610cee90611e40565b80601f0160208091040260200160405190810160405280929190818152602001828054610d1a90611e40565b8015610d675780601f10610d3c57610100808354040283529160200191610d67565b820191906000526020600020905b815481529060010190602001808311610d4a57829003601f168201915b505050505090506000610d8560408051602081019091526000815290565b90508051600003610d97575092915050565b815115610dc9578082604051602001610db1929190611f1f565b60405160208183030381529060405292505050919050565b610dd284611527565b949350505050565b60606000610de760075490565b905060008167ffffffffffffffff811115610e0457610e04611c70565b604051908082528060200260200182016040528015610e3d57816020015b610e2a611a5a565b815260200190600190039081610e225790505b5090506000805b83811015610efc576000610e59826001611edd565b6000818152600b6020908152604091829020825160a0810184528154815260018201546001600160a01b039081169382019390935260028201549092169282019290925260038201546060820152600482015460ff161515608082015286519293509091869086908110610ecf57610ecf611f09565b6020908102919091010152610ee5600185611edd565b935050508080610ef490611ef0565b915050610e44565b50909392505050565b6000610f1060075490565b905090565b6000818152600260205260409020546001600160a01b0316610f745760405162461bcd60e51b8152602060048201526018602482015277115490cdcc8c4e881a5b9d985b1a59081d1bdad95b88125160421b604482015260640161058e565b50565b600081815260046020526040902080546001600160a01b0319166001600160a01b0384169081179091558190610fac82610920565b6001600160a01b03167f8c5be1e5ebec7d5bd14f71427d1e84f3dd0314c0f7b2291e5b200ac8c7c3b92560405160405180910390a45050565b600080610ff183610920565b9050806001600160a01b0316846001600160a01b0316148061103857506001600160a01b0380821660009081526005602090815260408083209388168352929052205460ff165b80610dd25750836001600160a01b0316611051846104f3565b6001600160a01b031614949350505050565b826001600160a01b031661107682610920565b6001600160a01b03161461109c5760405162461bcd60e51b815260040161058e90611f4e565b6001600160a01b0382166110fe5760405162461bcd60e51b8152602060048201526024808201527f4552433732313a207472616e7366657220746f20746865207a65726f206164646044820152637265737360e01b606482015260840161058e565b61110b838383600161159a565b826001600160a01b031661111e82610920565b6001600160a01b0316146111445760405162461bcd60e51b815260040161058e90611f4e565b600081815260046020908152604080832080546001600160a01b03199081169091556001600160a01b0387811680865260038552838620805460001901905590871680865283862080546001019055868652600290945282852080549092168417909155905184937fddf252ad1be2c89b69c2b068fc378daa952ba7f163c4a11628f55a4df523b3ef91a4505050565b610c25828260405180602001604052806000815250611622565b6000828152600260205260409020546001600160a01b03166112695760405162461bcd60e51b815260206004820152602e60248201527f45524337323155524953746f726167653a2055524920736574206f66206e6f6e60448201526d32bc34b9ba32b73a103a37b5b2b760911b606482015260840161058e565b600082815260066020526040902061062f8282611fe1565b600a5434146112d25760405162461bcd60e51b815260206004820152601c60248201527f506c656173652070617920746865206c697374696e6720707269636500000000604482015260640161058e565b600081116113395760405162461bcd60e51b815260206004820152602e60248201527f506c65617365206d616b652073757265207072696365206973206e6f7420612060448201526d6e656761746976652076616c756560901b606482015260840161058e565b6040805160a081018252838152306020808301828152338486018181526060860188815260016080880181815260008c8152600b9097529890952096518755925193860180546001600160a01b039586166001600160a01b03199182161790915590516002870180549190951691161790925551600384015592516004909201805492151560ff19909316929092179091556113d6919084611063565b604080518381523060208201523381830152606081018390526001608082015290517f9339409317fd01fabff48b703019016f49159bacc801ae872d2ca637d226e4c09181900360a00190a15050565b816001600160a01b0316836001600160a01b0316036114875760405162461bcd60e51b815260206004820152601960248201527f4552433732313a20617070726f766520746f2063616c6c657200000000000000604482015260640161058e565b6001600160a01b03838116600081815260056020908152604080832094871680845294825291829020805460ff191686151590811790915591519182527f17307eab39ab6107e8899845ad3d59bd9653f200f220920489ca2b5937696c31910160405180910390a3505050565b6114ff848484611063565b61150b84848484611655565b610c145760405162461bcd60e51b815260040161058e906120a1565b606061153282610f15565b600061154960408051602081019091526000815290565b905060008151116115695760405180602001604052806000815250610a41565b8061157384611756565b604051602001611584929190611f1f565b6040516020818303038152906040529392505050565b6001811115610c14576001600160a01b038416156115e0576001600160a01b038416600090815260036020526040812080548392906115da9084906120f3565b90915550505b6001600160a01b03831615610c14576001600160a01b03831660009081526003602052604081208054839290611617908490611edd565b909155505050505050565b61162c83836117e9565b6116396000848484611655565b61062f5760405162461bcd60e51b815260040161058e906120a1565b60006001600160a01b0384163b1561174b57604051630a85bd0160e11b81526001600160a01b0385169063150b7a0290611699903390899088908890600401612106565b6020604051808303816000875af19250505080156116d4575060408051601f3d908101601f191682019092526116d191810190612143565b60015b611731573d808015611702576040519150601f19603f3d011682016040523d82523d6000602084013e611707565b606091505b5080516000036117295760405162461bcd60e51b815260040161058e906120a1565b805181602001fd5b6001600160e01b031916630a85bd0160e11b149050610dd2565b506001949350505050565b6060600061176383611982565b600101905060008167ffffffffffffffff81111561178357611783611c70565b6040519080825280601f01601f1916602001820160405280156117ad576020820181803683370190505b5090508181016020015b600019016f181899199a1a9b1b9c1cb0b131b232b360811b600a86061a8153600a85049450846117b757509392505050565b6001600160a01b03821661183f5760405162461bcd60e51b815260206004820181905260248201527f4552433732313a206d696e7420746f20746865207a65726f2061646472657373604482015260640161058e565b6000818152600260205260409020546001600160a01b0316156118a45760405162461bcd60e51b815260206004820152601c60248201527f4552433732313a20746f6b656e20616c7265616479206d696e74656400000000604482015260640161058e565b6118b260008383600161159a565b6000818152600260205260409020546001600160a01b0316156119175760405162461bcd60e51b815260206004820152601c60248201527f4552433732313a20746f6b656e20616c7265616479206d696e74656400000000604482015260640161058e565b6001600160a01b038216600081815260036020908152604080832080546001019055848352600290915280822080546001600160a01b0319168417905551839291907fddf252ad1be2c89b69c2b068fc378daa952ba7f163c4a11628f55a4df523b3ef908290a45050565b60008072184f03e93ff9f4daa797ed6e38ed64bf6a1f0160401b83106119c15772184f03e93ff9f4daa797ed6e38ed64bf6a1f0160401b830492506040015b6d04ee2d6d415b85acef810000000083106119ed576d04ee2d6d415b85acef8100000000830492506020015b662386f26fc100008310611a0b57662386f26fc10000830492506010015b6305f5e1008310611a23576305f5e100830492506008015b6127108310611a3757612710830492506004015b60648310611a49576064830492506002015b600a831061045b5760010192915050565b6040805160a08101825260008082526020820181905291810182905260608101829052608081019190915290565b6001600160e01b031981168114610f7457600080fd5b600060208284031215611ab057600080fd5b8135610a4181611a88565b60005b83811015611ad6578181015183820152602001611abe565b50506000910152565b60008151808452611af7816020860160208601611abb565b601f01601f19169290920160200192915050565b602081526000610a416020830184611adf565b600060208284031215611b3057600080fd5b5035919050565b80356001600160a01b0381168114611b4e57600080fd5b919050565b60008060408385031215611b6657600080fd5b611b6f83611b37565b946020939093013593505050565b600080600060608486031215611b9257600080fd5b611b9b84611b37565b9250611ba960208501611b37565b9150604084013590509250925092565b805182526020808201516001600160a01b039081169184019190915260408083015190911690830152606080820151908301526080908101511515910152565b60a0810161045b8284611bb9565b6020808252825182820181905260009190848201906040850190845b81811015611c4957611c36838551611bb9565b9284019260a09290920191600101611c23565b50909695505050505050565b600060208284031215611c6757600080fd5b610a4182611b37565b634e487b7160e01b600052604160045260246000fd5b600067ffffffffffffffff80841115611ca157611ca1611c70565b604051601f8501601f19908116603f01168101908282118183101715611cc957611cc9611c70565b81604052809350858152868686011115611ce257600080fd5b858560208301376000602087830101525050509392505050565b60008060408385031215611d0f57600080fd5b823567ffffffffffffffff811115611d2657600080fd5b8301601f81018513611d3757600080fd5b611d4685823560208401611c86565b95602094909401359450505050565b60008060408385031215611d6857600080fd5b611d7183611b37565b915060208301358015158114611d8657600080fd5b809150509250929050565b60008060008060808587031215611da757600080fd5b611db085611b37565b9350611dbe60208601611b37565b925060408501359150606085013567ffffffffffffffff811115611de157600080fd5b8501601f81018713611df257600080fd5b611e0187823560208401611c86565b91505092959194509250565b60008060408385031215611e2057600080fd5b611e2983611b37565b9150611e3760208401611b37565b90509250929050565b600181811c90821680611e5457607f821691505b602082108103611e7457634e487b7160e01b600052602260045260246000fd5b50919050565b6020808252602d908201527f4552433732313a2063616c6c6572206973206e6f7420746f6b656e206f776e6560408201526c1c881bdc88185c1c1c9bdd9959609a1b606082015260800190565b634e487b7160e01b600052601160045260246000fd5b8082018082111561045b5761045b611ec7565b600060018201611f0257611f02611ec7565b5060010190565b634e487b7160e01b600052603260045260246000fd5b60008351611f31818460208801611abb565b835190830190611f45818360208801611abb565b01949350505050565b60208082526025908201527f4552433732313a207472616e736665722066726f6d20696e636f72726563742060408201526437bbb732b960d91b606082015260800190565b601f82111561062f57600081815260208120601f850160051c81016020861015611fba5750805b601f850160051c820191505b81811015611fd957828155600101611fc6565b505050505050565b815167ffffffffffffffff811115611ffb57611ffb611c70565b61200f816120098454611e40565b84611f93565b602080601f831160018114612044576000841561202c5750858301515b600019600386901b1c1916600185901b178555611fd9565b600085815260208120601f198616915b8281101561207357888601518255948401946001909101908401612054565b50858210156120915787850151600019600388901b60f8161c191681555b5050505050600190811b01905550565b60208082526032908201527f4552433732313a207472616e7366657220746f206e6f6e20455243373231526560408201527131b2b4bb32b91034b6b83632b6b2b73a32b960711b606082015260800190565b8181038181111561045b5761045b611ec7565b6001600160a01b038581168252841660208201526040810183905260806060820181905260009061213990830184611adf565b9695505050505050565b60006020828403121561215557600080fd5b8151610a4181611a8856fea264697066735822122087a78c4a1c136bfe1bb9714e360241fe8d10730e5d04b449368729869797c89964736f6c63430008110033",
    "sourcePath": "c:/Users/honey/OneDrive/Desktop/Shravan/alchemy_nft_marketplace/closesea_marketplace/contracts/NFTMarketplace.sol",
    "compiler": {
        "name": "solc",
        "version": "0.8.17+commit.8df45f5f"
    },
    "functionHashes": {
        "approve(address,uint256)": "095ea7b3",
        "balanceOf(address)": "70a08231",
        "createToken(string,uint256)": "72b3b620",
        "executeSale(uint256)": "9b1225c4",
        "getAllNFTs()": "e0391b09",
        "getApproved(uint256)": "081812fc",
        "getCurrentToken()": "ef2d1746",
        "getListPrice()": "68f1945f",
        "getListedIdToListedToken()": "492be195",
        "getListedTokenForId(uint256)": "8e264590",
        "getMyNFTs()": "629cb2e4",
        "isApprovedForAll(address,address)": "e985e9c5",
        "name()": "06fdde03",
        "ownerOf(uint256)": "6352211e",
        "safeTransferFrom(address,address,uint256)": "42842e0e",
        "safeTransferFrom(address,address,uint256,bytes)": "b88d4fde",
        "setApprovalForAll(address,bool)": "a22cb465",
        "supportsInterface(bytes4)": "01ffc9a7",
        "symbol()": "95d89b41",
        "tokenURI(uint256)": "c87b56dd",
        "transferFrom(address,address,uint256)": "23b872dd",
        "updateListPrice(uint256)": "c322579c"
    },
    "gasEstimates": {
        "creation": {
            "codeDepositCost": "1719600",
            "executionCost": "infinite",
            "totalCost": "infinite"
        },
        "external": {
            "approve(address,uint256)": "infinite",
            "balanceOf(address)": "2722",
            "createToken(string,uint256)": "infinite",
            "executeSale(uint256)": "infinite",
            "getAllNFTs()": "infinite",
            "getApproved(uint256)": "4792",
            "getCurrentToken()": "2462",
            "getListPrice()": "2392",
            "getListedIdToListedToken()": "13535",
            "getListedTokenForId(uint256)": "11486",
            "getMyNFTs()": "infinite",
            "isApprovedForAll(address,address)": "infinite",
            "name()": "infinite",
            "ownerOf(uint256)": "2627",
            "safeTransferFrom(address,address,uint256)": "infinite",
            "safeTransferFrom(address,address,uint256,bytes)": "infinite",
            "setApprovalForAll(address,bool)": "26794",
            "supportsInterface(bytes4)": "534",
            "symbol()": "infinite",
            "tokenURI(uint256)": "infinite",
            "transferFrom(address,address,uint256)": "infinite",
            "updateListPrice(uint256)": "24484"
        },
        "internal": {
            "createListedToken(uint256,uint256)": "infinite"
        }
    }
}