{
  "_format": "hh-sol-artifact-1",
  "contractName": "NFTMarketplace",
  "sourceName": "contracts/NFTMarketplace.sol",
  "abi": [
    {
      "inputs": [],
      "stateMutability": "nonpayable",
      "type": "constructor"
    },
    {
      "anonymous": false,
      "inputs": [
        {
          "indexed": true,
          "internalType": "address",
          "name": "owner",
          "type": "address"
        },
        {
          "indexed": true,
          "internalType": "address",
          "name": "approved",
          "type": "address"
        },
        {
          "indexed": true,
          "internalType": "uint256",
          "name": "tokenId",
          "type": "uint256"
        }
      ],
      "name": "Approval",
      "type": "event"
    },
    {
      "anonymous": false,
      "inputs": [
        {
          "indexed": true,
          "internalType": "address",
          "name": "owner",
          "type": "address"
        },
        {
          "indexed": true,
          "internalType": "address",
          "name": "operator",
          "type": "address"
        },
        {
          "indexed": false,
          "internalType": "bool",
          "name": "approved",
          "type": "bool"
        }
      ],
      "name": "ApprovalForAll",
      "type": "event"
    },
    {
      "anonymous": false,
      "inputs": [
        {
          "indexed": true,
          "internalType": "uint256",
          "name": "tokenId",
          "type": "uint256"
        },
        {
          "indexed": false,
          "internalType": "address",
          "name": "owner",
          "type": "address"
        },
        {
          "indexed": false,
          "internalType": "address",
          "name": "seller",
          "type": "address"
        },
        {
          "indexed": false,
          "internalType": "uint256",
          "name": "price",
          "type": "uint256"
        },
        {
          "indexed": false,
          "internalType": "bool",
          "name": "currentlyListed",
          "type": "bool"
        }
      ],
      "name": "TokenListedSuccess",
      "type": "event"
    },
    {
      "anonymous": false,
      "inputs": [
        {
          "indexed": true,
          "internalType": "address",
          "name": "from",
          "type": "address"
        },
        {
          "indexed": true,
          "internalType": "address",
          "name": "to",
          "type": "address"
        },
        {
          "indexed": true,
          "internalType": "uint256",
          "name": "tokenId",
          "type": "uint256"
        }
      ],
      "name": "Transfer",
      "type": "event"
    },
    {
      "inputs": [
        {
          "internalType": "address",
          "name": "to",
          "type": "address"
        },
        {
          "internalType": "uint256",
          "name": "tokenId",
          "type": "uint256"
        }
      ],
      "name": "approve",
      "outputs": [],
      "stateMutability": "nonpayable",
      "type": "function"
    },
    {
      "inputs": [
        {
          "internalType": "address",
          "name": "owner",
          "type": "address"
        }
      ],
      "name": "balanceOf",
      "outputs": [
        {
          "internalType": "uint256",
          "name": "",
          "type": "uint256"
        }
      ],
      "stateMutability": "view",
      "type": "function"
    },
    {
      "inputs": [
        {
          "internalType": "string",
          "name": "tokenURI",
          "type": "string"
        },
        {
          "internalType": "uint256",
          "name": "price",
          "type": "uint256"
        }
      ],
      "name": "createToken",
      "outputs": [
        {
          "internalType": "uint256",
          "name": "",
          "type": "uint256"
        }
      ],
      "stateMutability": "payable",
      "type": "function"
    },
    {
      "inputs": [
        {
          "internalType": "uint256",
          "name": "tokenId",
          "type": "uint256"
        }
      ],
      "name": "executeSale",
      "outputs": [],
      "stateMutability": "payable",
      "type": "function"
    },
    {
      "inputs": [],
      "name": "getAllNFTs",
      "outputs": [
        {
          "components": [
            {
              "internalType": "uint256",
              "name": "tokenId",
              "type": "uint256"
            },
            {
              "internalType": "address payable",
              "name": "owner",
              "type": "address"
            },
            {
              "internalType": "address payable",
              "name": "seller",
              "type": "address"
            },
            {
              "internalType": "uint256",
              "name": "price",
              "type": "uint256"
            },
            {
              "internalType": "bool",
              "name": "currentlyListed",
              "type": "bool"
            }
          ],
          "internalType": "struct NFTMarketplace.ListedToken[]",
          "name": "",
          "type": "tuple[]"
        }
      ],
      "stateMutability": "view",
      "type": "function"
    },
    {
      "inputs": [
        {
          "internalType": "uint256",
          "name": "tokenId",
          "type": "uint256"
        }
      ],
      "name": "getApproved",
      "outputs": [
        {
          "internalType": "address",
          "name": "",
          "type": "address"
        }
      ],
      "stateMutability": "view",
      "type": "function"
    },
    {
      "inputs": [],
      "name": "getCurrentToken",
      "outputs": [
        {
          "internalType": "uint256",
          "name": "",
          "type": "uint256"
        }
      ],
      "stateMutability": "view",
      "type": "function"
    },
    {
      "inputs": [],
      "name": "getLatestIdToListedToken",
      "outputs": [
        {
          "components": [
            {
              "internalType": "uint256",
              "name": "tokenId",
              "type": "uint256"
            },
            {
              "internalType": "address payable",
              "name": "owner",
              "type": "address"
            },
            {
              "internalType": "address payable",
              "name": "seller",
              "type": "address"
            },
            {
              "internalType": "uint256",
              "name": "price",
              "type": "uint256"
            },
            {
              "internalType": "bool",
              "name": "currentlyListed",
              "type": "bool"
            }
          ],
          "internalType": "struct NFTMarketplace.ListedToken",
          "name": "",
          "type": "tuple"
        }
      ],
      "stateMutability": "view",
      "type": "function"
    },
    {
      "inputs": [],
      "name": "getListPrice",
      "outputs": [
        {
          "internalType": "uint256",
          "name": "",
          "type": "uint256"
        }
      ],
      "stateMutability": "view",
      "type": "function"
    },
    {
      "inputs": [
        {
          "internalType": "uint256",
          "name": "tokenId",
          "type": "uint256"
        }
      ],
      "name": "getListedTokenForId",
      "outputs": [
        {
          "components": [
            {
              "internalType": "uint256",
              "name": "tokenId",
              "type": "uint256"
            },
            {
              "internalType": "address payable",
              "name": "owner",
              "type": "address"
            },
            {
              "internalType": "address payable",
              "name": "seller",
              "type": "address"
            },
            {
              "internalType": "uint256",
              "name": "price",
              "type": "uint256"
            },
            {
              "internalType": "bool",
              "name": "currentlyListed",
              "type": "bool"
            }
          ],
          "internalType": "struct NFTMarketplace.ListedToken",
          "name": "",
          "type": "tuple"
        }
      ],
      "stateMutability": "view",
      "type": "function"
    },
    {
      "inputs": [],
      "name": "getMyNFTs",
      "outputs": [
        {
          "components": [
            {
              "internalType": "uint256",
              "name": "tokenId",
              "type": "uint256"
            },
            {
              "internalType": "address payable",
              "name": "owner",
              "type": "address"
            },
            {
              "internalType": "address payable",
              "name": "seller",
              "type": "address"
            },
            {
              "internalType": "uint256",
              "name": "price",
              "type": "uint256"
            },
            {
              "internalType": "bool",
              "name": "currentlyListed",
              "type": "bool"
            }
          ],
          "internalType": "struct NFTMarketplace.ListedToken[]",
          "name": "",
          "type": "tuple[]"
        }
      ],
      "stateMutability": "view",
      "type": "function"
    },
    {
      "inputs": [
        {
          "internalType": "address",
          "name": "owner",
          "type": "address"
        },
        {
          "internalType": "address",
          "name": "operator",
          "type": "address"
        }
      ],
      "name": "isApprovedForAll",
      "outputs": [
        {
          "internalType": "bool",
          "name": "",
          "type": "bool"
        }
      ],
      "stateMutability": "view",
      "type": "function"
    },
    {
      "inputs": [],
      "name": "name",
      "outputs": [
        {
          "internalType": "string",
          "name": "",
          "type": "string"
        }
      ],
      "stateMutability": "view",
      "type": "function"
    },
    {
      "inputs": [
        {
          "internalType": "uint256",
          "name": "tokenId",
          "type": "uint256"
        }
      ],
      "name": "ownerOf",
      "outputs": [
        {
          "internalType": "address",
          "name": "",
          "type": "address"
        }
      ],
      "stateMutability": "view",
      "type": "function"
    },
    {
      "inputs": [
        {
          "internalType": "address",
          "name": "from",
          "type": "address"
        },
        {
          "internalType": "address",
          "name": "to",
          "type": "address"
        },
        {
          "internalType": "uint256",
          "name": "tokenId",
          "type": "uint256"
        }
      ],
      "name": "safeTransferFrom",
      "outputs": [],
      "stateMutability": "nonpayable",
      "type": "function"
    },
    {
      "inputs": [
        {
          "internalType": "address",
          "name": "from",
          "type": "address"
        },
        {
          "internalType": "address",
          "name": "to",
          "type": "address"
        },
        {
          "internalType": "uint256",
          "name": "tokenId",
          "type": "uint256"
        },
        {
          "internalType": "bytes",
          "name": "data",
          "type": "bytes"
        }
      ],
      "name": "safeTransferFrom",
      "outputs": [],
      "stateMutability": "nonpayable",
      "type": "function"
    },
    {
      "inputs": [
        {
          "internalType": "address",
          "name": "operator",
          "type": "address"
        },
        {
          "internalType": "bool",
          "name": "approved",
          "type": "bool"
        }
      ],
      "name": "setApprovalForAll",
      "outputs": [],
      "stateMutability": "nonpayable",
      "type": "function"
    },
    {
      "inputs": [
        {
          "internalType": "bytes4",
          "name": "interfaceId",
          "type": "bytes4"
        }
      ],
      "name": "supportsInterface",
      "outputs": [
        {
          "internalType": "bool",
          "name": "",
          "type": "bool"
        }
      ],
      "stateMutability": "view",
      "type": "function"
    },
    {
      "inputs": [],
      "name": "symbol",
      "outputs": [
        {
          "internalType": "string",
          "name": "",
          "type": "string"
        }
      ],
      "stateMutability": "view",
      "type": "function"
    },
    {
      "inputs": [
        {
          "internalType": "uint256",
          "name": "tokenId",
          "type": "uint256"
        }
      ],
      "name": "tokenURI",
      "outputs": [
        {
          "internalType": "string",
          "name": "",
          "type": "string"
        }
      ],
      "stateMutability": "view",
      "type": "function"
    },
    {
      "inputs": [
        {
          "internalType": "address",
          "name": "from",
          "type": "address"
        },
        {
          "internalType": "address",
          "name": "to",
          "type": "address"
        },
        {
          "internalType": "uint256",
          "name": "tokenId",
          "type": "uint256"
        }
      ],
      "name": "transferFrom",
      "outputs": [],
      "stateMutability": "nonpayable",
      "type": "function"
    },
    {
      "inputs": [
        {
          "internalType": "uint256",
          "name": "_listPrice",
          "type": "uint256"
        }
      ],
      "name": "updateListPrice",
      "outputs": [],
      "stateMutability": "payable",
      "type": "function"
    }
  ],
  "bytecode": "0x6080604052662386f26fc10000600a553480156200001c57600080fd5b506040518060400160405280600e81526020017f4e46544d61726b6574706c6163650000000000000000000000000000000000008152506040518060400160405280600481526020017f4e46544d0000000000000000000000000000000000000000000000000000000081525081600090816200009a919062000370565b508060019081620000ac919062000370565b50505033600960006101000a81548173ffffffffffffffffffffffffffffffffffffffff021916908373ffffffffffffffffffffffffffffffffffffffff16021790555062000457565b600081519050919050565b7f4e487b7100000000000000000000000000000000000000000000000000000000600052604160045260246000fd5b7f4e487b7100000000000000000000000000000000000000000000000000000000600052602260045260246000fd5b600060028204905060018216806200017857607f821691505b6020821081036200018e576200018d62000130565b5b50919050565b60008190508160005260206000209050919050565b60006020601f8301049050919050565b600082821b905092915050565b600060088302620001f87fffffffffffffffffffffffffffffffffffffffffffffffffffffffffffffffff82620001b9565b620002048683620001b9565b95508019841693508086168417925050509392505050565b6000819050919050565b6000819050919050565b6000620002516200024b62000245846200021c565b62000226565b6200021c565b9050919050565b6000819050919050565b6200026d8362000230565b620002856200027c8262000258565b848454620001c6565b825550505050565b600090565b6200029c6200028d565b620002a981848462000262565b505050565b5b81811015620002d157620002c560008262000292565b600181019050620002af565b5050565b601f8211156200032057620002ea8162000194565b620002f584620001a9565b8101602085101562000305578190505b6200031d6200031485620001a9565b830182620002ae565b50505b505050565b600082821c905092915050565b6000620003456000198460080262000325565b1980831691505092915050565b600062000360838362000332565b9150826002028217905092915050565b6200037b82620000f6565b67ffffffffffffffff81111562000397576200039662000101565b5b620003a382546200015f565b620003b0828285620002d5565b600060209050601f831160018114620003e85760008415620003d3578287015190505b620003df858262000352565b8655506200044f565b601f198416620003f88662000194565b60005b828110156200042257848901518255600182019150602085019450602081019050620003fb565b868310156200044257848901516200043e601f89168262000332565b8355505b6001600288020188555050505b505050505050565b61409280620004676000396000f3fe6080604052600436106101355760003560e01c80638e264590116100ab578063c322579c1161006f578063c322579c14610430578063c87b56dd1461044c578063d1a88ae514610489578063e0391b09146104b4578063e985e9c5146104df578063ef2d17461461051c57610135565b80638e2645901461035a57806395d89b41146103975780639b1225c4146103c2578063a22cb465146103de578063b88d4fde1461040757610135565b806342842e0e116100fd57806342842e0e14610231578063629cb2e41461025a5780636352211e1461028557806368f1945f146102c257806370a08231146102ed57806372b3b6201461032a57610135565b806301ffc9a71461013a57806306fdde0314610177578063081812fc146101a2578063095ea7b3146101df57806323b872dd14610208575b600080fd5b34801561014657600080fd5b50610161600480360381019061015c91906129eb565b610547565b60405161016e9190612a33565b60405180910390f35b34801561018357600080fd5b5061018c610629565b6040516101999190612ade565b60405180910390f35b3480156101ae57600080fd5b506101c960048036038101906101c49190612b36565b6106bb565b6040516101d69190612ba4565b60405180910390f35b3480156101eb57600080fd5b5061020660048036038101906102019190612beb565b610701565b005b34801561021457600080fd5b5061022f600480360381019061022a9190612c2b565b610818565b005b34801561023d57600080fd5b5061025860048036038101906102539190612c2b565b610878565b005b34801561026657600080fd5b5061026f610898565b60405161027c9190612dd4565b60405180910390f35b34801561029157600080fd5b506102ac60048036038101906102a79190612b36565b610c76565b6040516102b99190612ba4565b60405180910390f35b3480156102ce57600080fd5b506102d7610cfc565b6040516102e49190612e05565b60405180910390f35b3480156102f957600080fd5b50610314600480360381019061030f9190612e20565b610d06565b6040516103219190612e05565b60405180910390f35b610344600480360381019061033f9190612f82565b610dbd565b6040516103519190612e05565b60405180910390f35b34801561036657600080fd5b50610381600480360381019061037c9190612b36565b610dff565b60405161038e9190613046565b60405180910390f35b3480156103a357600080fd5b506103ac610f07565b6040516103b99190612ade565b60405180910390f35b6103dc60048036038101906103d79190612b36565b610f99565b005b3480156103ea57600080fd5b506104056004803603810190610400919061308d565b61118b565b005b34801561041357600080fd5b5061042e6004803603810190610429919061316e565b6111a1565b005b61044a60048036038101906104459190612b36565b611203565b005b34801561045857600080fd5b50610473600480360381019061046e9190612b36565b61129d565b6040516104809190612ade565b60405180910390f35b34801561049557600080fd5b5061049e6113af565b6040516104ab9190613046565b60405180910390f35b3480156104c057600080fd5b506104c96114c4565b6040516104d69190612dd4565b60405180910390f35b3480156104eb57600080fd5b50610506600480360381019061050191906131f1565b611693565b6040516105139190612a33565b60405180910390f35b34801561052857600080fd5b50610531611727565b60405161053e9190612e05565b60405180910390f35b60007f80ac58cd000000000000000000000000000000000000000000000000000000007bffffffffffffffffffffffffffffffffffffffffffffffffffffffff1916827bffffffffffffffffffffffffffffffffffffffffffffffffffffffff1916148061061257507f5b5e139f000000000000000000000000000000000000000000000000000000007bffffffffffffffffffffffffffffffffffffffffffffffffffffffff1916827bffffffffffffffffffffffffffffffffffffffffffffffffffffffff1916145b80610622575061062182611738565b5b9050919050565b60606000805461063890613260565b80601f016020809104026020016040519081016040528092919081815260200182805461066490613260565b80156106b15780601f10610686576101008083540402835291602001916106b1565b820191906000526020600020905b81548152906001019060200180831161069457829003601f168201915b5050505050905090565b60006106c6826117a2565b6004600083815260200190815260200160002060009054906101000a900473ffffffffffffffffffffffffffffffffffffffff169050919050565b600061070c82610c76565b90508073ffffffffffffffffffffffffffffffffffffffff168373ffffffffffffffffffffffffffffffffffffffff160361077c576040517f08c379a000000000000000000000000000000000000000000000000000000000815260040161077390613303565b60405180910390fd5b8073ffffffffffffffffffffffffffffffffffffffff1661079b6117ed565b73ffffffffffffffffffffffffffffffffffffffff1614806107ca57506107c9816107c46117ed565b611693565b5b610809576040517f08c379a000000000000000000000000000000000000000000000000000000000815260040161080090613395565b60405180910390fd5b61081383836117f5565b505050565b6108296108236117ed565b826118ae565b610868576040517f08c379a000000000000000000000000000000000000000000000000000000000815260040161085f90613427565b60405180910390fd5b610873838383611943565b505050565b610893838383604051806020016040528060008152506111a1565b505050565b606060006108a66007611c3c565b905060008060005b838110156109c7573373ffffffffffffffffffffffffffffffffffffffff16600b60006001846108de9190613476565b815260200190815260200160002060010160009054906101000a900473ffffffffffffffffffffffffffffffffffffffff1673ffffffffffffffffffffffffffffffffffffffff16148061099f57503373ffffffffffffffffffffffffffffffffffffffff16600b60006001846109559190613476565b815260200190815260200160002060020160009054906101000a900473ffffffffffffffffffffffffffffffffffffffff1673ffffffffffffffffffffffffffffffffffffffff16145b156109b4576001836109b19190613476565b92505b80806109bf906134aa565b9150506108ae565b5060008267ffffffffffffffff8111156109e4576109e3612e57565b5b604051908082528060200260200182016040528015610a1d57816020015b610a0a612922565b815260200190600190039081610a025790505b50905060005b84811015610c6b573373ffffffffffffffffffffffffffffffffffffffff16600b6000600184610a539190613476565b815260200190815260200160002060010160009054906101000a900473ffffffffffffffffffffffffffffffffffffffff1673ffffffffffffffffffffffffffffffffffffffff161480610b1457503373ffffffffffffffffffffffffffffffffffffffff16600b6000600184610aca9190613476565b815260200190815260200160002060020160009054906101000a900473ffffffffffffffffffffffffffffffffffffffff1673ffffffffffffffffffffffffffffffffffffffff16145b15610c58576000600182610b289190613476565b90506000600b60008381526020019081526020016000209050806040518060a0016040529081600082015481526020016001820160009054906101000a900473ffffffffffffffffffffffffffffffffffffffff1673ffffffffffffffffffffffffffffffffffffffff1673ffffffffffffffffffffffffffffffffffffffff1681526020016002820160009054906101000a900473ffffffffffffffffffffffffffffffffffffffff1673ffffffffffffffffffffffffffffffffffffffff1673ffffffffffffffffffffffffffffffffffffffff168152602001600382015481526020016004820160009054906101000a900460ff161515151581525050848681518110610c3b57610c3a6134f2565b5b6020026020010181905250600185610c539190613476565b945050505b8080610c63906134aa565b915050610a23565b508094505050505090565b600080610c8283611c4a565b9050600073ffffffffffffffffffffffffffffffffffffffff168173ffffffffffffffffffffffffffffffffffffffff1603610cf3576040517f08c379a0000000000000000000000000000000000000000000000000000000008152600401610cea9061356d565b60405180910390fd5b80915050919050565b6000600a54905090565b60008073ffffffffffffffffffffffffffffffffffffffff168273ffffffffffffffffffffffffffffffffffffffff1603610d76576040517f08c379a0000000000000000000000000000000000000000000000000000000008152600401610d6d906135ff565b60405180910390fd5b600360008373ffffffffffffffffffffffffffffffffffffffff1673ffffffffffffffffffffffffffffffffffffffff168152602001908152602001600020549050919050565b6000610dc96007611c87565b6000610dd56007611c3c565b9050610de13382611c9d565b610deb8185611cbb565b610df58184611d28565b8091505092915050565b610e07612922565b600b60008381526020019081526020016000206040518060a0016040529081600082015481526020016001820160009054906101000a900473ffffffffffffffffffffffffffffffffffffffff1673ffffffffffffffffffffffffffffffffffffffff1673ffffffffffffffffffffffffffffffffffffffff1681526020016002820160009054906101000a900473ffffffffffffffffffffffffffffffffffffffff1673ffffffffffffffffffffffffffffffffffffffff1673ffffffffffffffffffffffffffffffffffffffff168152602001600382015481526020016004820160009054906101000a900460ff1615151515815250509050919050565b606060018054610f1690613260565b80601f0160208091040260200160405190810160405280929190818152602001828054610f4290613260565b8015610f8f5780601f10610f6457610100808354040283529160200191610f8f565b820191906000526020600020905b815481529060010190602001808311610f7257829003601f168201915b5050505050905090565b6000600b60008381526020019081526020016000206003015490506000600b600084815260200190815260200160002060020160009054906101000a900473ffffffffffffffffffffffffffffffffffffffff169050813414611031576040517f08c379a000000000000000000000000000000000000000000000000000000000815260040161102890613691565b60405180910390fd5b6001600b600085815260200190815260200160002060040160006101000a81548160ff02191690831515021790555033600b600085815260200190815260200160002060020160006101000a81548173ffffffffffffffffffffffffffffffffffffffff021916908373ffffffffffffffffffffffffffffffffffffffff1602179055506110bf6008611c87565b6110ca303385611943565b6110d43084610701565b600960009054906101000a900473ffffffffffffffffffffffffffffffffffffffff1673ffffffffffffffffffffffffffffffffffffffff166108fc600a549081150290604051600060405180830381858888f1935050505015801561113e573d6000803e3d6000fd5b508073ffffffffffffffffffffffffffffffffffffffff166108fc349081150290604051600060405180830381858888f19350505050158015611185573d6000803e3d6000fd5b50505050565b61119d6111966117ed565b8383611f2b565b5050565b6111b26111ac6117ed565b836118ae565b6111f1576040517f08c379a00000000000000000000000000000000000000000000000000000000081526004016111e890613427565b60405180910390fd5b6111fd84848484612097565b50505050565b3373ffffffffffffffffffffffffffffffffffffffff16600960009054906101000a900473ffffffffffffffffffffffffffffffffffffffff1673ffffffffffffffffffffffffffffffffffffffff1614611293576040517f08c379a000000000000000000000000000000000000000000000000000000000815260040161128a90613723565b60405180910390fd5b80600a8190555050565b60606112a8826117a2565b60006006600084815260200190815260200160002080546112c890613260565b80601f01602080910402602001604051908101604052809291908181526020018280546112f490613260565b80156113415780601f1061131657610100808354040283529160200191611341565b820191906000526020600020905b81548152906001019060200180831161132457829003601f168201915b5050505050905060006113526120f3565b905060008151036113675781925050506113aa565b60008251111561139c57808260405160200161138492919061377f565b604051602081830303815290604052925050506113aa565b6113a58461210a565b925050505b919050565b6113b7612922565b60006113c36007611c3c565b9050600b60008281526020019081526020016000206040518060a0016040529081600082015481526020016001820160009054906101000a900473ffffffffffffffffffffffffffffffffffffffff1673ffffffffffffffffffffffffffffffffffffffff1673ffffffffffffffffffffffffffffffffffffffff1681526020016002820160009054906101000a900473ffffffffffffffffffffffffffffffffffffffff1673ffffffffffffffffffffffffffffffffffffffff1673ffffffffffffffffffffffffffffffffffffffff168152602001600382015481526020016004820160009054906101000a900460ff16151515158152505091505090565b606060006114d26007611c3c565b905060008167ffffffffffffffff8111156114f0576114ef612e57565b5b60405190808252806020026020018201604052801561152957816020015b611516612922565b81526020019060019003908161150e5790505b5090506000805b838110156116895760006001826115479190613476565b90506000600b60008381526020019081526020016000209050806040518060a0016040529081600082015481526020016001820160009054906101000a900473ffffffffffffffffffffffffffffffffffffffff1673ffffffffffffffffffffffffffffffffffffffff1673ffffffffffffffffffffffffffffffffffffffff1681526020016002820160009054906101000a900473ffffffffffffffffffffffffffffffffffffffff1673ffffffffffffffffffffffffffffffffffffffff1673ffffffffffffffffffffffffffffffffffffffff168152602001600382015481526020016004820160009054906101000a900460ff16151515158152505085858151811061165a576116596134f2565b5b60200260200101819052506001846116729190613476565b935050508080611681906134aa565b915050611530565b5081935050505090565b6000600560008473ffffffffffffffffffffffffffffffffffffffff1673ffffffffffffffffffffffffffffffffffffffff16815260200190815260200160002060008373ffffffffffffffffffffffffffffffffffffffff1673ffffffffffffffffffffffffffffffffffffffff16815260200190815260200160002060009054906101000a900460ff16905092915050565b60006117336007611c3c565b905090565b60007f01ffc9a7000000000000000000000000000000000000000000000000000000007bffffffffffffffffffffffffffffffffffffffffffffffffffffffff1916827bffffffffffffffffffffffffffffffffffffffffffffffffffffffff1916149050919050565b6117ab81612172565b6117ea576040517f08c379a00000000000000000000000000000000000000000000000000000000081526004016117e19061356d565b60405180910390fd5b50565b600033905090565b816004600083815260200190815260200160002060006101000a81548173ffffffffffffffffffffffffffffffffffffffff021916908373ffffffffffffffffffffffffffffffffffffffff160217905550808273ffffffffffffffffffffffffffffffffffffffff1661186883610c76565b73ffffffffffffffffffffffffffffffffffffffff167f8c5be1e5ebec7d5bd14f71427d1e84f3dd0314c0f7b2291e5b200ac8c7c3b92560405160405180910390a45050565b6000806118ba83610c76565b90508073ffffffffffffffffffffffffffffffffffffffff168473ffffffffffffffffffffffffffffffffffffffff1614806118fc57506118fb8185611693565b5b8061193a57508373ffffffffffffffffffffffffffffffffffffffff16611922846106bb565b73ffffffffffffffffffffffffffffffffffffffff16145b91505092915050565b8273ffffffffffffffffffffffffffffffffffffffff1661196382610c76565b73ffffffffffffffffffffffffffffffffffffffff16146119b9576040517f08c379a00000000000000000000000000000000000000000000000000000000081526004016119b090613815565b60405180910390fd5b600073ffffffffffffffffffffffffffffffffffffffff168273ffffffffffffffffffffffffffffffffffffffff1603611a28576040517f08c379a0000000000000000000000000000000000000000000000000000000008152600401611a1f906138a7565b60405180910390fd5b611a3583838360016121b3565b8273ffffffffffffffffffffffffffffffffffffffff16611a5582610c76565b73ffffffffffffffffffffffffffffffffffffffff1614611aab576040517f08c379a0000000000000000000000000000000000000000000000000000000008152600401611aa290613815565b60405180910390fd5b6004600082815260200190815260200160002060006101000a81549073ffffffffffffffffffffffffffffffffffffffff02191690556001600360008573ffffffffffffffffffffffffffffffffffffffff1673ffffffffffffffffffffffffffffffffffffffff168152602001908152602001600020600082825403925050819055506001600360008473ffffffffffffffffffffffffffffffffffffffff1673ffffffffffffffffffffffffffffffffffffffff16815260200190815260200160002060008282540192505081905550816002600083815260200190815260200160002060006101000a81548173ffffffffffffffffffffffffffffffffffffffff021916908373ffffffffffffffffffffffffffffffffffffffff160217905550808273ffffffffffffffffffffffffffffffffffffffff168473ffffffffffffffffffffffffffffffffffffffff167fddf252ad1be2c89b69c2b068fc378daa952ba7f163c4a11628f55a4df523b3ef60405160405180910390a4611c3783838360016122d9565b505050565b600081600001549050919050565b60006002600083815260200190815260200160002060009054906101000a900473ffffffffffffffffffffffffffffffffffffffff169050919050565b6001816000016000828254019250508190555050565b611cb78282604051806020016040528060008152506122df565b5050565b611cc482612172565b611d03576040517f08c379a0000000000000000000000000000000000000000000000000000000008152600401611cfa90613939565b60405180910390fd5b80600660008481526020019081526020016000209081611d239190613b05565b505050565b600a543414611d6c576040517f08c379a0000000000000000000000000000000000000000000000000000000008152600401611d6390613c49565b60405180910390fd5b60008111611daf576040517f08c379a0000000000000000000000000000000000000000000000000000000008152600401611da690613cdb565b60405180910390fd5b6040518060a001604052808381526020013073ffffffffffffffffffffffffffffffffffffffff1681526020013373ffffffffffffffffffffffffffffffffffffffff16815260200182815260200160011515815250600b60008481526020019081526020016000206000820151816000015560208201518160010160006101000a81548173ffffffffffffffffffffffffffffffffffffffff021916908373ffffffffffffffffffffffffffffffffffffffff16021790555060408201518160020160006101000a81548173ffffffffffffffffffffffffffffffffffffffff021916908373ffffffffffffffffffffffffffffffffffffffff1602179055506060820151816003015560808201518160040160006101000a81548160ff021916908315150217905550905050611ee8333084611943565b817f9339409317fd01fabff48b703019016f49159bacc801ae872d2ca637d226e4c03033846001604051611f1f9493929190613cfb565b60405180910390a25050565b8173ffffffffffffffffffffffffffffffffffffffff168373ffffffffffffffffffffffffffffffffffffffff1603611f99576040517f08c379a0000000000000000000000000000000000000000000000000000000008152600401611f9090613d8c565b60405180910390fd5b80600560008573ffffffffffffffffffffffffffffffffffffffff1673ffffffffffffffffffffffffffffffffffffffff16815260200190815260200160002060008473ffffffffffffffffffffffffffffffffffffffff1673ffffffffffffffffffffffffffffffffffffffff16815260200190815260200160002060006101000a81548160ff0219169083151502179055508173ffffffffffffffffffffffffffffffffffffffff168373ffffffffffffffffffffffffffffffffffffffff167f17307eab39ab6107e8899845ad3d59bd9653f200f220920489ca2b5937696c318360405161208a9190612a33565b60405180910390a3505050565b6120a2848484611943565b6120ae8484848461233a565b6120ed576040517f08c379a00000000000000000000000000000000000000000000000000000000081526004016120e490613e1e565b60405180910390fd5b50505050565b606060405180602001604052806000815250905090565b6060612115826117a2565b600061211f6120f3565b9050600081511161213f576040518060200160405280600081525061216a565b80612149846124c1565b60405160200161215a92919061377f565b6040516020818303038152906040525b915050919050565b60008073ffffffffffffffffffffffffffffffffffffffff1661219483611c4a565b73ffffffffffffffffffffffffffffffffffffffff1614159050919050565b60018111156122d357600073ffffffffffffffffffffffffffffffffffffffff168473ffffffffffffffffffffffffffffffffffffffff16146122475780600360008673ffffffffffffffffffffffffffffffffffffffff1673ffffffffffffffffffffffffffffffffffffffff168152602001908152602001600020600082825461223f9190613e3e565b925050819055505b600073ffffffffffffffffffffffffffffffffffffffff168373ffffffffffffffffffffffffffffffffffffffff16146122d25780600360008573ffffffffffffffffffffffffffffffffffffffff1673ffffffffffffffffffffffffffffffffffffffff16815260200190815260200160002060008282546122ca9190613476565b925050819055505b5b50505050565b50505050565b6122e9838361258f565b6122f6600084848461233a565b612335576040517f08c379a000000000000000000000000000000000000000000000000000000000815260040161232c90613e1e565b60405180910390fd5b505050565b600061235b8473ffffffffffffffffffffffffffffffffffffffff166127ac565b156124b4578373ffffffffffffffffffffffffffffffffffffffff1663150b7a026123846117ed565b8786866040518563ffffffff1660e01b81526004016123a69493929190613ec7565b6020604051808303816000875af19250505080156123e257506040513d601f19601f820116820180604052508101906123df9190613f28565b60015b612464573d8060008114612412576040519150601f19603f3d011682016040523d82523d6000602084013e612417565b606091505b50600081510361245c576040517f08c379a000000000000000000000000000000000000000000000000000000000815260040161245390613e1e565b60405180910390fd5b805181602001fd5b63150b7a0260e01b7bffffffffffffffffffffffffffffffffffffffffffffffffffffffff1916817bffffffffffffffffffffffffffffffffffffffffffffffffffffffff1916149150506124b9565b600190505b949350505050565b6060600060016124d0846127cf565b01905060008167ffffffffffffffff8111156124ef576124ee612e57565b5b6040519080825280601f01601f1916602001820160405280156125215781602001600182028036833780820191505090505b509050600082602001820190505b600115612584578080600190039150507f3031323334353637383961626364656600000000000000000000000000000000600a86061a8153600a858161257857612577613f55565b5b0494506000850361252f575b819350505050919050565b600073ffffffffffffffffffffffffffffffffffffffff168273ffffffffffffffffffffffffffffffffffffffff16036125fe576040517f08c379a00000000000000000000000000000000000000000000000000000000081526004016125f590613fd0565b60405180910390fd5b61260781612172565b15612647576040517f08c379a000000000000000000000000000000000000000000000000000000000815260040161263e9061403c565b60405180910390fd5b6126556000838360016121b3565b61265e81612172565b1561269e576040517f08c379a00000000000000000000000000000000000000000000000000000000081526004016126959061403c565b60405180910390fd5b6001600360008473ffffffffffffffffffffffffffffffffffffffff1673ffffffffffffffffffffffffffffffffffffffff16815260200190815260200160002060008282540192505081905550816002600083815260200190815260200160002060006101000a81548173ffffffffffffffffffffffffffffffffffffffff021916908373ffffffffffffffffffffffffffffffffffffffff160217905550808273ffffffffffffffffffffffffffffffffffffffff16600073ffffffffffffffffffffffffffffffffffffffff167fddf252ad1be2c89b69c2b068fc378daa952ba7f163c4a11628f55a4df523b3ef60405160405180910390a46127a86000838360016122d9565b5050565b6000808273ffffffffffffffffffffffffffffffffffffffff163b119050919050565b600080600090507a184f03e93ff9f4daa797ed6e38ed64bf6a1f010000000000000000831061282d577a184f03e93ff9f4daa797ed6e38ed64bf6a1f010000000000000000838161282357612822613f55565b5b0492506040810190505b6d04ee2d6d415b85acef8100000000831061286a576d04ee2d6d415b85acef810000000083816128605761285f613f55565b5b0492506020810190505b662386f26fc10000831061289957662386f26fc10000838161288f5761288e613f55565b5b0492506010810190505b6305f5e10083106128c2576305f5e10083816128b8576128b7613f55565b5b0492506008810190505b61271083106128e75761271083816128dd576128dc613f55565b5b0492506004810190505b6064831061290a5760648381612900576128ff613f55565b5b0492506002810190505b600a8310612919576001810190505b80915050919050565b6040518060a0016040528060008152602001600073ffffffffffffffffffffffffffffffffffffffff168152602001600073ffffffffffffffffffffffffffffffffffffffff168152602001600081526020016000151581525090565b6000604051905090565b600080fd5b600080fd5b60007fffffffff0000000000000000000000000000000000000000000000000000000082169050919050565b6129c881612993565b81146129d357600080fd5b50565b6000813590506129e5816129bf565b92915050565b600060208284031215612a0157612a00612989565b5b6000612a0f848285016129d6565b91505092915050565b60008115159050919050565b612a2d81612a18565b82525050565b6000602082019050612a486000830184612a24565b92915050565b600081519050919050565b600082825260208201905092915050565b60005b83811015612a88578082015181840152602081019050612a6d565b60008484015250505050565b6000601f19601f8301169050919050565b6000612ab082612a4e565b612aba8185612a59565b9350612aca818560208601612a6a565b612ad381612a94565b840191505092915050565b60006020820190508181036000830152612af88184612aa5565b905092915050565b6000819050919050565b612b1381612b00565b8114612b1e57600080fd5b50565b600081359050612b3081612b0a565b92915050565b600060208284031215612b4c57612b4b612989565b5b6000612b5a84828501612b21565b91505092915050565b600073ffffffffffffffffffffffffffffffffffffffff82169050919050565b6000612b8e82612b63565b9050919050565b612b9e81612b83565b82525050565b6000602082019050612bb96000830184612b95565b92915050565b612bc881612b83565b8114612bd357600080fd5b50565b600081359050612be581612bbf565b92915050565b60008060408385031215612c0257612c01612989565b5b6000612c1085828601612bd6565b9250506020612c2185828601612b21565b9150509250929050565b600080600060608486031215612c4457612c43612989565b5b6000612c5286828701612bd6565b9350506020612c6386828701612bd6565b9250506040612c7486828701612b21565b9150509250925092565b600081519050919050565b600082825260208201905092915050565b6000819050602082019050919050565b612cb381612b00565b82525050565b6000612cc482612b63565b9050919050565b612cd481612cb9565b82525050565b612ce381612a18565b82525050565b60a082016000820151612cff6000850182612caa565b506020820151612d126020850182612ccb565b506040820151612d256040850182612ccb565b506060820151612d386060850182612caa565b506080820151612d4b6080850182612cda565b50505050565b6000612d5d8383612ce9565b60a08301905092915050565b6000602082019050919050565b6000612d8182612c7e565b612d8b8185612c89565b9350612d9683612c9a565b8060005b83811015612dc7578151612dae8882612d51565b9750612db983612d69565b925050600181019050612d9a565b5085935050505092915050565b60006020820190508181036000830152612dee8184612d76565b905092915050565b612dff81612b00565b82525050565b6000602082019050612e1a6000830184612df6565b92915050565b600060208284031215612e3657612e35612989565b5b6000612e4484828501612bd6565b91505092915050565b600080fd5b600080fd5b7f4e487b7100000000000000000000000000000000000000000000000000000000600052604160045260246000fd5b612e8f82612a94565b810181811067ffffffffffffffff82111715612eae57612ead612e57565b5b80604052505050565b6000612ec161297f565b9050612ecd8282612e86565b919050565b600067ffffffffffffffff821115612eed57612eec612e57565b5b612ef682612a94565b9050602081019050919050565b82818337600083830152505050565b6000612f25612f2084612ed2565b612eb7565b905082815260208101848484011115612f4157612f40612e52565b5b612f4c848285612f03565b509392505050565b600082601f830112612f6957612f68612e4d565b5b8135612f79848260208601612f12565b91505092915050565b60008060408385031215612f9957612f98612989565b5b600083013567ffffffffffffffff811115612fb757612fb661298e565b5b612fc385828601612f54565b9250506020612fd485828601612b21565b9150509250929050565b60a082016000820151612ff46000850182612caa565b5060208201516130076020850182612ccb565b50604082015161301a6040850182612ccb565b50606082015161302d6060850182612caa565b5060808201516130406080850182612cda565b50505050565b600060a08201905061305b6000830184612fde565b92915050565b61306a81612a18565b811461307557600080fd5b50565b60008135905061308781613061565b92915050565b600080604083850312156130a4576130a3612989565b5b60006130b285828601612bd6565b92505060206130c385828601613078565b9150509250929050565b600067ffffffffffffffff8211156130e8576130e7612e57565b5b6130f182612a94565b9050602081019050919050565b600061311161310c846130cd565b612eb7565b90508281526020810184848401111561312d5761312c612e52565b5b613138848285612f03565b509392505050565b600082601f83011261315557613154612e4d565b5b81356131658482602086016130fe565b91505092915050565b6000806000806080858703121561318857613187612989565b5b600061319687828801612bd6565b94505060206131a787828801612bd6565b93505060406131b887828801612b21565b925050606085013567ffffffffffffffff8111156131d9576131d861298e565b5b6131e587828801613140565b91505092959194509250565b6000806040838503121561320857613207612989565b5b600061321685828601612bd6565b925050602061322785828601612bd6565b9150509250929050565b7f4e487b7100000000000000000000000000000000000000000000000000000000600052602260045260246000fd5b6000600282049050600182168061327857607f821691505b60208210810361328b5761328a613231565b5b50919050565b7f4552433732313a20617070726f76616c20746f2063757272656e74206f776e6560008201527f7200000000000000000000000000000000000000000000000000000000000000602082015250565b60006132ed602183612a59565b91506132f882613291565b604082019050919050565b6000602082019050818103600083015261331c816132e0565b9050919050565b7f4552433732313a20617070726f76652063616c6c6572206973206e6f7420746f60008201527f6b656e206f776e6572206f7220617070726f76656420666f7220616c6c000000602082015250565b600061337f603d83612a59565b915061338a82613323565b604082019050919050565b600060208201905081810360008301526133ae81613372565b9050919050565b7f4552433732313a2063616c6c6572206973206e6f7420746f6b656e206f776e6560008201527f72206f7220617070726f76656400000000000000000000000000000000000000602082015250565b6000613411602d83612a59565b915061341c826133b5565b604082019050919050565b6000602082019050818103600083015261344081613404565b9050919050565b7f4e487b7100000000000000000000000000000000000000000000000000000000600052601160045260246000fd5b600061348182612b00565b915061348c83612b00565b92508282019050808211156134a4576134a3613447565b5b92915050565b60006134b582612b00565b91507fffffffffffffffffffffffffffffffffffffffffffffffffffffffffffffffff82036134e7576134e6613447565b5b600182019050919050565b7f4e487b7100000000000000000000000000000000000000000000000000000000600052603260045260246000fd5b7f4552433732313a20696e76616c696420746f6b656e2049440000000000000000600082015250565b6000613557601883612a59565b915061356282613521565b602082019050919050565b600060208201905081810360008301526135868161354a565b9050919050565b7f4552433732313a2061646472657373207a65726f206973206e6f74206120766160008201527f6c6964206f776e65720000000000000000000000000000000000000000000000602082015250565b60006135e9602983612a59565b91506135f48261358d565b604082019050919050565b60006020820190508181036000830152613618816135dc565b9050919050565b7f506c65617365207375626d6974207468652061736b696e67207072696365206960008201527f6e206f7264657220746f20636f6d706c65746520746865207075726368617365602082015250565b600061367b604083612a59565b91506136868261361f565b604082019050919050565b600060208201905081810360008301526136aa8161366e565b9050919050565b7f4f6e6c79206f776e65722063616e20757064617465206c697374696e6720707260008201527f6963650000000000000000000000000000000000000000000000000000000000602082015250565b600061370d602383612a59565b9150613718826136b1565b604082019050919050565b6000602082019050818103600083015261373c81613700565b9050919050565b600081905092915050565b600061375982612a4e565b6137638185613743565b9350613773818560208601612a6a565b80840191505092915050565b600061378b828561374e565b9150613797828461374e565b91508190509392505050565b7f4552433732313a207472616e736665722066726f6d20696e636f72726563742060008201527f6f776e6572000000000000000000000000000000000000000000000000000000602082015250565b60006137ff602583612a59565b915061380a826137a3565b604082019050919050565b6000602082019050818103600083015261382e816137f2565b9050919050565b7f4552433732313a207472616e7366657220746f20746865207a65726f2061646460008201527f7265737300000000000000000000000000000000000000000000000000000000602082015250565b6000613891602483612a59565b915061389c82613835565b604082019050919050565b600060208201905081810360008301526138c081613884565b9050919050565b7f45524337323155524953746f726167653a2055524920736574206f66206e6f6e60008201527f6578697374656e7420746f6b656e000000000000000000000000000000000000602082015250565b6000613923602e83612a59565b915061392e826138c7565b604082019050919050565b6000602082019050818103600083015261395281613916565b9050919050565b60008190508160005260206000209050919050565b60006020601f8301049050919050565b600082821b905092915050565b6000600883026139bb7fffffffffffffffffffffffffffffffffffffffffffffffffffffffffffffffff8261397e565b6139c5868361397e565b95508019841693508086168417925050509392505050565b6000819050919050565b6000613a026139fd6139f884612b00565b6139dd565b612b00565b9050919050565b6000819050919050565b613a1c836139e7565b613a30613a2882613a09565b84845461398b565b825550505050565b600090565b613a45613a38565b613a50818484613a13565b505050565b5b81811015613a7457613a69600082613a3d565b600181019050613a56565b5050565b601f821115613ab957613a8a81613959565b613a938461396e565b81016020851015613aa2578190505b613ab6613aae8561396e565b830182613a55565b50505b505050565b600082821c905092915050565b6000613adc60001984600802613abe565b1980831691505092915050565b6000613af58383613acb565b9150826002028217905092915050565b613b0e82612a4e565b67ffffffffffffffff811115613b2757613b26612e57565b5b613b318254613260565b613b3c828285613a78565b600060209050601f831160018114613b6f5760008415613b5d578287015190505b613b678582613ae9565b865550613bcf565b601f198416613b7d86613959565b60005b82811015613ba557848901518255600182019150602085019450602081019050613b80565b86831015613bc25784890151613bbe601f891682613acb565b8355505b6001600288020188555050505b505050505050565b7f486f706566756c6c792073656e64696e672074686520636f727265637420707260008201527f6963650000000000000000000000000000000000000000000000000000000000602082015250565b6000613c33602383612a59565b9150613c3e82613bd7565b604082019050919050565b60006020820190508181036000830152613c6281613c26565b9050919050565b7f4d616b652073757265207468652070726963652069736e2774206e656761746960008201527f7665000000000000000000000000000000000000000000000000000000000000602082015250565b6000613cc5602283612a59565b9150613cd082613c69565b604082019050919050565b60006020820190508181036000830152613cf481613cb8565b9050919050565b6000608082019050613d106000830187612b95565b613d1d6020830186612b95565b613d2a6040830185612df6565b613d376060830184612a24565b95945050505050565b7f4552433732313a20617070726f766520746f2063616c6c657200000000000000600082015250565b6000613d76601983612a59565b9150613d8182613d40565b602082019050919050565b60006020820190508181036000830152613da581613d69565b9050919050565b7f4552433732313a207472616e7366657220746f206e6f6e20455243373231526560008201527f63656976657220696d706c656d656e7465720000000000000000000000000000602082015250565b6000613e08603283612a59565b9150613e1382613dac565b604082019050919050565b60006020820190508181036000830152613e3781613dfb565b9050919050565b6000613e4982612b00565b9150613e5483612b00565b9250828203905081811115613e6c57613e6b613447565b5b92915050565b600081519050919050565b600082825260208201905092915050565b6000613e9982613e72565b613ea38185613e7d565b9350613eb3818560208601612a6a565b613ebc81612a94565b840191505092915050565b6000608082019050613edc6000830187612b95565b613ee96020830186612b95565b613ef66040830185612df6565b8181036060830152613f088184613e8e565b905095945050505050565b600081519050613f22816129bf565b92915050565b600060208284031215613f3e57613f3d612989565b5b6000613f4c84828501613f13565b91505092915050565b7f4e487b7100000000000000000000000000000000000000000000000000000000600052601260045260246000fd5b7f4552433732313a206d696e7420746f20746865207a65726f2061646472657373600082015250565b6000613fba602083612a59565b9150613fc582613f84565b602082019050919050565b60006020820190508181036000830152613fe981613fad565b9050919050565b7f4552433732313a20746f6b656e20616c7265616479206d696e74656400000000600082015250565b6000614026601c83612a59565b915061403182613ff0565b602082019050919050565b6000602082019050818103600083015261405581614019565b905091905056fea2646970667358221220bc8bfaa44e35e2c6b885a33544d74504af08dec7f20dd682c74803e3a3bf40b764736f6c63430008110033",
  "linkReferences": {},
  "deployedLinkReferences": {}
}