{
  "_format": "hh-sol-artifact-1",
  "contractName": "NFTMarketplace",
  "sourceName": "contracts/NFTMarketplace.sol",
  "abi": [
    {
      "inputs": [],
      "stateMutability": "nonpayable",
      "type": "constructor"
    },
    {
      "anonymous": false,
      "inputs": [
        {
          "indexed": true,
          "internalType": "address",
          "name": "owner",
          "type": "address"
        },
        {
          "indexed": true,
          "internalType": "address",
          "name": "approved",
          "type": "address"
        },
        {
          "indexed": true,
          "internalType": "uint256",
          "name": "tokenId",
          "type": "uint256"
        }
      ],
      "name": "Approval",
      "type": "event"
    },
    {
      "anonymous": false,
      "inputs": [
        {
          "indexed": true,
          "internalType": "address",
          "name": "owner",
          "type": "address"
        },
        {
          "indexed": true,
          "internalType": "address",
          "name": "operator",
          "type": "address"
        },
        {
          "indexed": false,
          "internalType": "bool",
          "name": "approved",
          "type": "bool"
        }
      ],
      "name": "ApprovalForAll",
      "type": "event"
    },
    {
      "anonymous": false,
      "inputs": [
        {
          "indexed": true,
          "internalType": "uint256",
          "name": "tokenId",
          "type": "uint256"
        },
        {
          "indexed": false,
          "internalType": "address",
          "name": "owner",
          "type": "address"
        },
        {
          "indexed": false,
          "internalType": "address",
          "name": "seller",
          "type": "address"
        },
        {
          "indexed": false,
          "internalType": "uint256",
          "name": "price",
          "type": "uint256"
        },
        {
          "indexed": false,
          "internalType": "bool",
          "name": "currentlyListed",
          "type": "bool"
        }
      ],
      "name": "TokenListedSuccess",
      "type": "event"
    },
    {
      "anonymous": false,
      "inputs": [
        {
          "indexed": true,
          "internalType": "address",
          "name": "from",
          "type": "address"
        },
        {
          "indexed": true,
          "internalType": "address",
          "name": "to",
          "type": "address"
        },
        {
          "indexed": true,
          "internalType": "uint256",
          "name": "tokenId",
          "type": "uint256"
        }
      ],
      "name": "Transfer",
      "type": "event"
    },
    {
      "inputs": [
        {
          "internalType": "address",
          "name": "to",
          "type": "address"
        },
        {
          "internalType": "uint256",
          "name": "tokenId",
          "type": "uint256"
        }
      ],
      "name": "approve",
      "outputs": [],
      "stateMutability": "nonpayable",
      "type": "function"
    },
    {
      "inputs": [
        {
          "internalType": "address",
          "name": "owner",
          "type": "address"
        }
      ],
      "name": "balanceOf",
      "outputs": [
        {
          "internalType": "uint256",
          "name": "",
          "type": "uint256"
        }
      ],
      "stateMutability": "view",
      "type": "function"
    },
    {
      "inputs": [
        {
          "internalType": "string",
          "name": "tokenURI",
          "type": "string"
        },
        {
          "internalType": "uint256",
          "name": "price",
          "type": "uint256"
        }
      ],
      "name": "createToken",
      "outputs": [
        {
          "internalType": "uint256",
          "name": "",
          "type": "uint256"
        }
      ],
      "stateMutability": "payable",
      "type": "function"
    },
    {
      "inputs": [
        {
          "internalType": "uint256",
          "name": "tokenId",
          "type": "uint256"
        }
      ],
      "name": "executeSale",
      "outputs": [],
      "stateMutability": "payable",
      "type": "function"
    },
    {
      "inputs": [],
      "name": "getAllNFTs",
      "outputs": [
        {
          "components": [
            {
              "internalType": "uint256",
              "name": "tokenId",
              "type": "uint256"
            },
            {
              "internalType": "address payable",
              "name": "owner",
              "type": "address"
            },
            {
              "internalType": "address payable",
              "name": "seller",
              "type": "address"
            },
            {
              "internalType": "uint256",
              "name": "price",
              "type": "uint256"
            },
            {
              "internalType": "bool",
              "name": "currentlyListed",
              "type": "bool"
            }
          ],
          "internalType": "struct NFTMarketplace.ListedToken[]",
          "name": "",
          "type": "tuple[]"
        }
      ],
      "stateMutability": "view",
      "type": "function"
    },
    {
      "inputs": [
        {
          "internalType": "uint256",
          "name": "tokenId",
          "type": "uint256"
        }
      ],
      "name": "getApproved",
      "outputs": [
        {
          "internalType": "address",
          "name": "",
          "type": "address"
        }
      ],
      "stateMutability": "view",
      "type": "function"
    },
    {
      "inputs": [],
      "name": "getCurrentToken",
      "outputs": [
        {
          "internalType": "uint256",
          "name": "",
          "type": "uint256"
        }
      ],
      "stateMutability": "view",
      "type": "function"
    },
    {
      "inputs": [],
      "name": "getLatestIdToListedToken",
      "outputs": [
        {
          "components": [
            {
              "internalType": "uint256",
              "name": "tokenId",
              "type": "uint256"
            },
            {
              "internalType": "address payable",
              "name": "owner",
              "type": "address"
            },
            {
              "internalType": "address payable",
              "name": "seller",
              "type": "address"
            },
            {
              "internalType": "uint256",
              "name": "price",
              "type": "uint256"
            },
            {
              "internalType": "bool",
              "name": "currentlyListed",
              "type": "bool"
            }
          ],
          "internalType": "struct NFTMarketplace.ListedToken",
          "name": "",
          "type": "tuple"
        }
      ],
      "stateMutability": "view",
      "type": "function"
    },
    {
      "inputs": [],
      "name": "getListPrice",
      "outputs": [
        {
          "internalType": "uint256",
          "name": "",
          "type": "uint256"
        }
      ],
      "stateMutability": "view",
      "type": "function"
    },
    {
      "inputs": [
        {
          "internalType": "uint256",
          "name": "tokenId",
          "type": "uint256"
        }
      ],
      "name": "getListedTokenForId",
      "outputs": [
        {
          "components": [
            {
              "internalType": "uint256",
              "name": "tokenId",
              "type": "uint256"
            },
            {
              "internalType": "address payable",
              "name": "owner",
              "type": "address"
            },
            {
              "internalType": "address payable",
              "name": "seller",
              "type": "address"
            },
            {
              "internalType": "uint256",
              "name": "price",
              "type": "uint256"
            },
            {
              "internalType": "bool",
              "name": "currentlyListed",
              "type": "bool"
            }
          ],
          "internalType": "struct NFTMarketplace.ListedToken",
          "name": "",
          "type": "tuple"
        }
      ],
      "stateMutability": "view",
      "type": "function"
    },
    {
      "inputs": [],
      "name": "getMyNFTs",
      "outputs": [
        {
          "components": [
            {
              "internalType": "uint256",
              "name": "tokenId",
              "type": "uint256"
            },
            {
              "internalType": "address payable",
              "name": "owner",
              "type": "address"
            },
            {
              "internalType": "address payable",
              "name": "seller",
              "type": "address"
            },
            {
              "internalType": "uint256",
              "name": "price",
              "type": "uint256"
            },
            {
              "internalType": "bool",
              "name": "currentlyListed",
              "type": "bool"
            }
          ],
          "internalType": "struct NFTMarketplace.ListedToken[]",
          "name": "",
          "type": "tuple[]"
        }
      ],
      "stateMutability": "view",
      "type": "function"
    },
    {
      "inputs": [
        {
          "internalType": "address",
          "name": "owner",
          "type": "address"
        },
        {
          "internalType": "address",
          "name": "operator",
          "type": "address"
        }
      ],
      "name": "isApprovedForAll",
      "outputs": [
        {
          "internalType": "bool",
          "name": "",
          "type": "bool"
        }
      ],
      "stateMutability": "view",
      "type": "function"
    },
    {
      "inputs": [],
      "name": "name",
      "outputs": [
        {
          "internalType": "string",
          "name": "",
          "type": "string"
        }
      ],
      "stateMutability": "view",
      "type": "function"
    },
    {
      "inputs": [
        {
          "internalType": "uint256",
          "name": "tokenId",
          "type": "uint256"
        }
      ],
      "name": "ownerOf",
      "outputs": [
        {
          "internalType": "address",
          "name": "",
          "type": "address"
        }
      ],
      "stateMutability": "view",
      "type": "function"
    },
    {
      "inputs": [
        {
          "internalType": "address",
          "name": "from",
          "type": "address"
        },
        {
          "internalType": "address",
          "name": "to",
          "type": "address"
        },
        {
          "internalType": "uint256",
          "name": "tokenId",
          "type": "uint256"
        }
      ],
      "name": "safeTransferFrom",
      "outputs": [],
      "stateMutability": "nonpayable",
      "type": "function"
    },
    {
      "inputs": [
        {
          "internalType": "address",
          "name": "from",
          "type": "address"
        },
        {
          "internalType": "address",
          "name": "to",
          "type": "address"
        },
        {
          "internalType": "uint256",
          "name": "tokenId",
          "type": "uint256"
        },
        {
          "internalType": "bytes",
          "name": "data",
          "type": "bytes"
        }
      ],
      "name": "safeTransferFrom",
      "outputs": [],
      "stateMutability": "nonpayable",
      "type": "function"
    },
    {
      "inputs": [
        {
          "internalType": "address",
          "name": "operator",
          "type": "address"
        },
        {
          "internalType": "bool",
          "name": "approved",
          "type": "bool"
        }
      ],
      "name": "setApprovalForAll",
      "outputs": [],
      "stateMutability": "nonpayable",
      "type": "function"
    },
    {
      "inputs": [
        {
          "internalType": "bytes4",
          "name": "interfaceId",
          "type": "bytes4"
        }
      ],
      "name": "supportsInterface",
      "outputs": [
        {
          "internalType": "bool",
          "name": "",
          "type": "bool"
        }
      ],
      "stateMutability": "view",
      "type": "function"
    },
    {
      "inputs": [],
      "name": "symbol",
      "outputs": [
        {
          "internalType": "string",
          "name": "",
          "type": "string"
        }
      ],
      "stateMutability": "view",
      "type": "function"
    },
    {
      "inputs": [
        {
          "internalType": "uint256",
          "name": "tokenId",
          "type": "uint256"
        }
      ],
      "name": "tokenURI",
      "outputs": [
        {
          "internalType": "string",
          "name": "",
          "type": "string"
        }
      ],
      "stateMutability": "view",
      "type": "function"
    },
    {
      "inputs": [
        {
          "internalType": "address",
          "name": "from",
          "type": "address"
        },
        {
          "internalType": "address",
          "name": "to",
          "type": "address"
        },
        {
          "internalType": "uint256",
          "name": "tokenId",
          "type": "uint256"
        }
      ],
      "name": "transferFrom",
      "outputs": [],
      "stateMutability": "nonpayable",
      "type": "function"
    },
    {
      "inputs": [
        {
          "internalType": "uint256",
          "name": "_listPrice",
          "type": "uint256"
        }
      ],
      "name": "updateListPrice",
      "outputs": [],
      "stateMutability": "payable",
      "type": "function"
    }
  ],
  "bytecode": "0x6080604052662386f26fc10000600a553480156200001c57600080fd5b506040518060400160405280600e81526020017f4e46544d61726b6574706c6163650000000000000000000000000000000000008152506040518060400160405280600481526020017f4e46544d000000000000000000000000000000000000000000000000000000008152508160009080519060200190620000a192919062000104565b508060019080519060200190620000ba92919062000104565b50505033600960006101000a81548173ffffffffffffffffffffffffffffffffffffffff021916908373ffffffffffffffffffffffffffffffffffffffff16021790555062000219565b8280546200011290620001b4565b90600052602060002090601f01602090048101928262000136576000855562000182565b82601f106200015157805160ff191683800117855562000182565b8280016001018555821562000182579182015b828111156200018157825182559160200191906001019062000164565b5b50905062000191919062000195565b5090565b5b80821115620001b057600081600090555060010162000196565b5090565b60006002820490506001821680620001cd57607f821691505b60208210811415620001e457620001e3620001ea565b5b50919050565b7f4e487b7100000000000000000000000000000000000000000000000000000000600052602260045260246000fd5b61402280620002296000396000f3fe6080604052600436106101355760003560e01c80638e264590116100ab578063c322579c1161006f578063c322579c14610430578063c87b56dd1461044c578063d1a88ae514610489578063e0391b09146104b4578063e985e9c5146104df578063ef2d17461461051c57610135565b80638e2645901461035a57806395d89b41146103975780639b1225c4146103c2578063a22cb465146103de578063b88d4fde1461040757610135565b806342842e0e116100fd57806342842e0e14610231578063629cb2e41461025a5780636352211e1461028557806368f1945f146102c257806370a08231146102ed57806372b3b6201461032a57610135565b806301ffc9a71461013a57806306fdde0314610177578063081812fc146101a2578063095ea7b3146101df57806323b872dd14610208575b600080fd5b34801561014657600080fd5b50610161600480360381019061015c9190612ef2565b610547565b60405161016e9190613526565b60405180910390f35b34801561018357600080fd5b5061018c610629565b6040516101999190613541565b60405180910390f35b3480156101ae57600080fd5b506101c960048036038101906101c49190612f98565b6106bb565b6040516101d69190613458565b60405180910390f35b3480156101eb57600080fd5b5061020660048036038101906102019190612eb6565b610701565b005b34801561021457600080fd5b5061022f600480360381019061022a9190612db0565b610819565b005b34801561023d57600080fd5b5061025860048036038101906102539190612db0565b610879565b005b34801561026657600080fd5b5061026f610899565b60405161027c9190613504565b60405180910390f35b34801561029157600080fd5b506102ac60048036038101906102a79190612f98565b610cc3565b6040516102b99190613458565b60405180910390f35b3480156102ce57600080fd5b506102d7610d4a565b6040516102e4919061377e565b60405180910390f35b3480156102f957600080fd5b50610314600480360381019061030f9190612d4b565b610d54565b604051610321919061377e565b60405180910390f35b610344600480360381019061033f9190612f44565b610e0c565b604051610351919061377e565b60405180910390f35b34801561036657600080fd5b50610381600480360381019061037c9190612f98565b610e4e565b60405161038e9190613763565b60405180910390f35b3480156103a357600080fd5b506103ac610f56565b6040516103b99190613541565b60405180910390f35b6103dc60048036038101906103d79190612f98565b610fe8565b005b3480156103ea57600080fd5b5061040560048036038101906104009190612e7a565b6111da565b005b34801561041357600080fd5b5061042e60048036038101906104299190612dff565b6111f0565b005b61044a60048036038101906104459190612f98565b611252565b005b34801561045857600080fd5b50610473600480360381019061046e9190612f98565b6112ec565b6040516104809190613541565b60405180910390f35b34801561049557600080fd5b5061049e6113ff565b6040516104ab9190613763565b60405180910390f35b3480156104c057600080fd5b506104c9611514565b6040516104d69190613504565b60405180910390f35b3480156104eb57600080fd5b5061050660048036038101906105019190612d74565b61172f565b6040516105139190613526565b60405180910390f35b34801561052857600080fd5b506105316117c3565b60405161053e919061377e565b60405180910390f35b60007f80ac58cd000000000000000000000000000000000000000000000000000000007bffffffffffffffffffffffffffffffffffffffffffffffffffffffff1916827bffffffffffffffffffffffffffffffffffffffffffffffffffffffff1916148061061257507f5b5e139f000000000000000000000000000000000000000000000000000000007bffffffffffffffffffffffffffffffffffffffffffffffffffffffff1916827bffffffffffffffffffffffffffffffffffffffffffffffffffffffff1916145b806106225750610621826117d4565b5b9050919050565b606060008054610638906139ee565b80601f0160208091040260200160405190810160405280929190818152602001828054610664906139ee565b80156106b15780601f10610686576101008083540402835291602001916106b1565b820191906000526020600020905b81548152906001019060200180831161069457829003601f168201915b5050505050905090565b60006106c68261183e565b6004600083815260200190815260200160002060009054906101000a900473ffffffffffffffffffffffffffffffffffffffff169050919050565b600061070c82610cc3565b90508073ffffffffffffffffffffffffffffffffffffffff168373ffffffffffffffffffffffffffffffffffffffff16141561077d576040517f08c379a000000000000000000000000000000000000000000000000000000000815260040161077490613703565b60405180910390fd5b8073ffffffffffffffffffffffffffffffffffffffff1661079c611889565b73ffffffffffffffffffffffffffffffffffffffff1614806107cb57506107ca816107c5611889565b61172f565b5b61080a576040517f08c379a000000000000000000000000000000000000000000000000000000000815260040161080190613723565b60405180910390fd5b6108148383611891565b505050565b61082a610824611889565b8261194a565b610869576040517f08c379a000000000000000000000000000000000000000000000000000000000815260040161086090613563565b60405180910390fd5b6108748383836119df565b505050565b610894838383604051806020016040528060008152506111f0565b505050565b606060006108a76007611cd9565b905060008060005b838110156109c8573373ffffffffffffffffffffffffffffffffffffffff16600b60006001846108df919061389c565b815260200190815260200160002060010160009054906101000a900473ffffffffffffffffffffffffffffffffffffffff1673ffffffffffffffffffffffffffffffffffffffff1614806109a057503373ffffffffffffffffffffffffffffffffffffffff16600b6000600184610956919061389c565b815260200190815260200160002060020160009054906101000a900473ffffffffffffffffffffffffffffffffffffffff1673ffffffffffffffffffffffffffffffffffffffff16145b156109b5576001836109b2919061389c565b92505b80806109c090613a51565b9150506108af565b5060008267ffffffffffffffff811115610a0b577f4e487b7100000000000000000000000000000000000000000000000000000000600052604160045260246000fd5b604051908082528060200260200182016040528015610a4457816020015b610a31612b12565b815260200190600190039081610a295790505b50905060005b84811015610cb8573373ffffffffffffffffffffffffffffffffffffffff16600b6000600184610a7a919061389c565b815260200190815260200160002060010160009054906101000a900473ffffffffffffffffffffffffffffffffffffffff1673ffffffffffffffffffffffffffffffffffffffff161480610b3b57503373ffffffffffffffffffffffffffffffffffffffff16600b6000600184610af1919061389c565b815260200190815260200160002060020160009054906101000a900473ffffffffffffffffffffffffffffffffffffffff1673ffffffffffffffffffffffffffffffffffffffff16145b15610ca5576000600182610b4f919061389c565b90506000600b60008381526020019081526020016000209050806040518060a0016040529081600082015481526020016001820160009054906101000a900473ffffffffffffffffffffffffffffffffffffffff1673ffffffffffffffffffffffffffffffffffffffff1673ffffffffffffffffffffffffffffffffffffffff1681526020016002820160009054906101000a900473ffffffffffffffffffffffffffffffffffffffff1673ffffffffffffffffffffffffffffffffffffffff1673ffffffffffffffffffffffffffffffffffffffff168152602001600382015481526020016004820160009054906101000a900460ff161515151581525050848681518110610c88577f4e487b7100000000000000000000000000000000000000000000000000000000600052603260045260246000fd5b6020026020010181905250600185610ca0919061389c565b945050505b8080610cb090613a51565b915050610a4a565b508094505050505090565b600080610ccf83611ce7565b9050600073ffffffffffffffffffffffffffffffffffffffff168173ffffffffffffffffffffffffffffffffffffffff161415610d41576040517f08c379a0000000000000000000000000000000000000000000000000000000008152600401610d38906136e3565b60405180910390fd5b80915050919050565b6000600a54905090565b60008073ffffffffffffffffffffffffffffffffffffffff168273ffffffffffffffffffffffffffffffffffffffff161415610dc5576040517f08c379a0000000000000000000000000000000000000000000000000000000008152600401610dbc90613643565b60405180910390fd5b600360008373ffffffffffffffffffffffffffffffffffffffff1673ffffffffffffffffffffffffffffffffffffffff168152602001908152602001600020549050919050565b6000610e186007611d24565b6000610e246007611cd9565b9050610e303382611d3a565b610e3a8185611d58565b610e448184611dcc565b8091505092915050565b610e56612b12565b600b60008381526020019081526020016000206040518060a0016040529081600082015481526020016001820160009054906101000a900473ffffffffffffffffffffffffffffffffffffffff1673ffffffffffffffffffffffffffffffffffffffff1673ffffffffffffffffffffffffffffffffffffffff1681526020016002820160009054906101000a900473ffffffffffffffffffffffffffffffffffffffff1673ffffffffffffffffffffffffffffffffffffffff1673ffffffffffffffffffffffffffffffffffffffff168152602001600382015481526020016004820160009054906101000a900460ff1615151515815250509050919050565b606060018054610f65906139ee565b80601f0160208091040260200160405190810160405280929190818152602001828054610f91906139ee565b8015610fde5780601f10610fb357610100808354040283529160200191610fde565b820191906000526020600020905b815481529060010190602001808311610fc157829003601f168201915b5050505050905090565b6000600b60008381526020019081526020016000206003015490506000600b600084815260200190815260200160002060020160009054906101000a900473ffffffffffffffffffffffffffffffffffffffff169050813414611080576040517f08c379a000000000000000000000000000000000000000000000000000000000815260040161107790613683565b60405180910390fd5b6001600b600085815260200190815260200160002060040160006101000a81548160ff02191690831515021790555033600b600085815260200190815260200160002060020160006101000a81548173ffffffffffffffffffffffffffffffffffffffff021916908373ffffffffffffffffffffffffffffffffffffffff16021790555061110e6008611d24565b6111193033856119df565b6111233084610701565b600960009054906101000a900473ffffffffffffffffffffffffffffffffffffffff1673ffffffffffffffffffffffffffffffffffffffff166108fc600a549081150290604051600060405180830381858888f1935050505015801561118d573d6000803e3d6000fd5b508073ffffffffffffffffffffffffffffffffffffffff166108fc349081150290604051600060405180830381858888f193505050501580156111d4573d6000803e3d6000fd5b50505050565b6111ec6111e5611889565b8383611fcf565b5050565b6112016111fb611889565b8361194a565b611240576040517f08c379a000000000000000000000000000000000000000000000000000000000815260040161123790613563565b60405180910390fd5b61124c8484848461213c565b50505050565b3373ffffffffffffffffffffffffffffffffffffffff16600960009054906101000a900473ffffffffffffffffffffffffffffffffffffffff1673ffffffffffffffffffffffffffffffffffffffff16146112e2576040517f08c379a00000000000000000000000000000000000000000000000000000000081526004016112d990613623565b60405180910390fd5b80600a8190555050565b60606112f78261183e565b6000600660008481526020019081526020016000208054611317906139ee565b80601f0160208091040260200160405190810160405280929190818152602001828054611343906139ee565b80156113905780601f1061136557610100808354040283529160200191611390565b820191906000526020600020905b81548152906001019060200180831161137357829003601f168201915b5050505050905060006113a1612198565b90506000815114156113b75781925050506113fa565b6000825111156113ec5780826040516020016113d4929190613434565b604051602081830303815290604052925050506113fa565b6113f5846121af565b925050505b919050565b611407612b12565b60006114136007611cd9565b9050600b60008281526020019081526020016000206040518060a0016040529081600082015481526020016001820160009054906101000a900473ffffffffffffffffffffffffffffffffffffffff1673ffffffffffffffffffffffffffffffffffffffff1673ffffffffffffffffffffffffffffffffffffffff1681526020016002820160009054906101000a900473ffffffffffffffffffffffffffffffffffffffff1673ffffffffffffffffffffffffffffffffffffffff1673ffffffffffffffffffffffffffffffffffffffff168152602001600382015481526020016004820160009054906101000a900460ff16151515158152505091505090565b606060006115226007611cd9565b905060008167ffffffffffffffff811115611566577f4e487b7100000000000000000000000000000000000000000000000000000000600052604160045260246000fd5b60405190808252806020026020018201604052801561159f57816020015b61158c612b12565b8152602001906001900390816115845790505b5090506000805b838110156117255760006001826115bd919061389c565b90506000600b60008381526020019081526020016000209050806040518060a0016040529081600082015481526020016001820160009054906101000a900473ffffffffffffffffffffffffffffffffffffffff1673ffffffffffffffffffffffffffffffffffffffff1673ffffffffffffffffffffffffffffffffffffffff1681526020016002820160009054906101000a900473ffffffffffffffffffffffffffffffffffffffff1673ffffffffffffffffffffffffffffffffffffffff1673ffffffffffffffffffffffffffffffffffffffff168152602001600382015481526020016004820160009054906101000a900460ff1615151515815250508585815181106116f6577f4e487b7100000000000000000000000000000000000000000000000000000000600052603260045260246000fd5b602002602001018190525060018461170e919061389c565b93505050808061171d90613a51565b9150506115a6565b5081935050505090565b6000600560008473ffffffffffffffffffffffffffffffffffffffff1673ffffffffffffffffffffffffffffffffffffffff16815260200190815260200160002060008373ffffffffffffffffffffffffffffffffffffffff1673ffffffffffffffffffffffffffffffffffffffff16815260200190815260200160002060009054906101000a900460ff16905092915050565b60006117cf6007611cd9565b905090565b60007f01ffc9a7000000000000000000000000000000000000000000000000000000007bffffffffffffffffffffffffffffffffffffffffffffffffffffffff1916827bffffffffffffffffffffffffffffffffffffffffffffffffffffffff1916149050919050565b61184781612217565b611886576040517f08c379a000000000000000000000000000000000000000000000000000000000815260040161187d906136e3565b60405180910390fd5b50565b600033905090565b816004600083815260200190815260200160002060006101000a81548173ffffffffffffffffffffffffffffffffffffffff021916908373ffffffffffffffffffffffffffffffffffffffff160217905550808273ffffffffffffffffffffffffffffffffffffffff1661190483610cc3565b73ffffffffffffffffffffffffffffffffffffffff167f8c5be1e5ebec7d5bd14f71427d1e84f3dd0314c0f7b2291e5b200ac8c7c3b92560405160405180910390a45050565b60008061195683610cc3565b90508073ffffffffffffffffffffffffffffffffffffffff168473ffffffffffffffffffffffffffffffffffffffff1614806119985750611997818561172f565b5b806119d657508373ffffffffffffffffffffffffffffffffffffffff166119be846106bb565b73ffffffffffffffffffffffffffffffffffffffff16145b91505092915050565b8273ffffffffffffffffffffffffffffffffffffffff166119ff82610cc3565b73ffffffffffffffffffffffffffffffffffffffff1614611a55576040517f08c379a0000000000000000000000000000000000000000000000000000000008152600401611a4c906135a3565b60405180910390fd5b600073ffffffffffffffffffffffffffffffffffffffff168273ffffffffffffffffffffffffffffffffffffffff161415611ac5576040517f08c379a0000000000000000000000000000000000000000000000000000000008152600401611abc906135e3565b60405180910390fd5b611ad28383836001612258565b8273ffffffffffffffffffffffffffffffffffffffff16611af282610cc3565b73ffffffffffffffffffffffffffffffffffffffff1614611b48576040517f08c379a0000000000000000000000000000000000000000000000000000000008152600401611b3f906135a3565b60405180910390fd5b6004600082815260200190815260200160002060006101000a81549073ffffffffffffffffffffffffffffffffffffffff02191690556001600360008573ffffffffffffffffffffffffffffffffffffffff1673ffffffffffffffffffffffffffffffffffffffff168152602001908152602001600020600082825403925050819055506001600360008473ffffffffffffffffffffffffffffffffffffffff1673ffffffffffffffffffffffffffffffffffffffff16815260200190815260200160002060008282540192505081905550816002600083815260200190815260200160002060006101000a81548173ffffffffffffffffffffffffffffffffffffffff021916908373ffffffffffffffffffffffffffffffffffffffff160217905550808273ffffffffffffffffffffffffffffffffffffffff168473ffffffffffffffffffffffffffffffffffffffff167fddf252ad1be2c89b69c2b068fc378daa952ba7f163c4a11628f55a4df523b3ef60405160405180910390a4611cd4838383600161237e565b505050565b600081600001549050919050565b60006002600083815260200190815260200160002060009054906101000a900473ffffffffffffffffffffffffffffffffffffffff169050919050565b6001816000016000828254019250508190555050565b611d54828260405180602001604052806000815250612384565b5050565b611d6182612217565b611da0576040517f08c379a0000000000000000000000000000000000000000000000000000000008152600401611d9790613663565b60405180910390fd5b80600660008481526020019081526020016000209080519060200190611dc7929190612b6f565b505050565b600a543414611e10576040517f08c379a0000000000000000000000000000000000000000000000000000000008152600401611e07906136c3565b60405180910390fd5b60008111611e53576040517f08c379a0000000000000000000000000000000000000000000000000000000008152600401611e4a90613743565b60405180910390fd5b6040518060a001604052808381526020013073ffffffffffffffffffffffffffffffffffffffff1681526020013373ffffffffffffffffffffffffffffffffffffffff16815260200182815260200160011515815250600b60008481526020019081526020016000206000820151816000015560208201518160010160006101000a81548173ffffffffffffffffffffffffffffffffffffffff021916908373ffffffffffffffffffffffffffffffffffffffff16021790555060408201518160020160006101000a81548173ffffffffffffffffffffffffffffffffffffffff021916908373ffffffffffffffffffffffffffffffffffffffff1602179055506060820151816003015560808201518160040160006101000a81548160ff021916908315150217905550905050611f8c3330846119df565b817f9339409317fd01fabff48b703019016f49159bacc801ae872d2ca637d226e4c03033846001604051611fc39493929190613473565b60405180910390a25050565b8173ffffffffffffffffffffffffffffffffffffffff168373ffffffffffffffffffffffffffffffffffffffff16141561203e576040517f08c379a000000000000000000000000000000000000000000000000000000000815260040161203590613603565b60405180910390fd5b80600560008573ffffffffffffffffffffffffffffffffffffffff1673ffffffffffffffffffffffffffffffffffffffff16815260200190815260200160002060008473ffffffffffffffffffffffffffffffffffffffff1673ffffffffffffffffffffffffffffffffffffffff16815260200190815260200160002060006101000a81548160ff0219169083151502179055508173ffffffffffffffffffffffffffffffffffffffff168373ffffffffffffffffffffffffffffffffffffffff167f17307eab39ab6107e8899845ad3d59bd9653f200f220920489ca2b5937696c318360405161212f9190613526565b60405180910390a3505050565b6121478484846119df565b612153848484846123df565b612192576040517f08c379a000000000000000000000000000000000000000000000000000000000815260040161218990613583565b60405180910390fd5b50505050565b606060405180602001604052806000815250905090565b60606121ba8261183e565b60006121c4612198565b905060008151116121e4576040518060200160405280600081525061220f565b806121ee84612576565b6040516020016121ff929190613434565b6040516020818303038152906040525b915050919050565b60008073ffffffffffffffffffffffffffffffffffffffff1661223983611ce7565b73ffffffffffffffffffffffffffffffffffffffff1614159050919050565b600181111561237857600073ffffffffffffffffffffffffffffffffffffffff168473ffffffffffffffffffffffffffffffffffffffff16146122ec5780600360008673ffffffffffffffffffffffffffffffffffffffff1673ffffffffffffffffffffffffffffffffffffffff16815260200190815260200160002060008282546122e491906138f2565b925050819055505b600073ffffffffffffffffffffffffffffffffffffffff168373ffffffffffffffffffffffffffffffffffffffff16146123775780600360008573ffffffffffffffffffffffffffffffffffffffff1673ffffffffffffffffffffffffffffffffffffffff168152602001908152602001600020600082825461236f919061389c565b925050819055505b5b50505050565b50505050565b61238e838361269a565b61239b60008484846123df565b6123da576040517f08c379a00000000000000000000000000000000000000000000000000000000081526004016123d190613583565b60405180910390fd5b505050565b60006124008473ffffffffffffffffffffffffffffffffffffffff166128b8565b15612569578373ffffffffffffffffffffffffffffffffffffffff1663150b7a02612429611889565b8786866040518563ffffffff1660e01b815260040161244b94939291906134b8565b602060405180830381600087803b15801561246557600080fd5b505af192505050801561249657506040513d601f19601f820116820180604052508101906124939190612f1b565b60015b612519573d80600081146124c6576040519150601f19603f3d011682016040523d82523d6000602084013e6124cb565b606091505b50600081511415612511576040517f08c379a000000000000000000000000000000000000000000000000000000000815260040161250890613583565b60405180910390fd5b805181602001fd5b63150b7a0260e01b7bffffffffffffffffffffffffffffffffffffffffffffffffffffffff1916817bffffffffffffffffffffffffffffffffffffffffffffffffffffffff19161491505061256e565b600190505b949350505050565b606060006001612585846128db565b01905060008167ffffffffffffffff8111156125ca577f4e487b7100000000000000000000000000000000000000000000000000000000600052604160045260246000fd5b6040519080825280601f01601f1916602001820160405280156125fc5781602001600182028036833780820191505090505b509050600082602001820190505b60011561268f578080600190039150507f3031323334353637383961626364656600000000000000000000000000000000600a86061a8153600a8581612679577f4e487b7100000000000000000000000000000000000000000000000000000000600052601260045260246000fd5b049450600085141561268a5761268f565b61260a565b819350505050919050565b600073ffffffffffffffffffffffffffffffffffffffff168273ffffffffffffffffffffffffffffffffffffffff16141561270a576040517f08c379a0000000000000000000000000000000000000000000000000000000008152600401612701906136a3565b60405180910390fd5b61271381612217565b15612753576040517f08c379a000000000000000000000000000000000000000000000000000000000815260040161274a906135c3565b60405180910390fd5b612761600083836001612258565b61276a81612217565b156127aa576040517f08c379a00000000000000000000000000000000000000000000000000000000081526004016127a1906135c3565b60405180910390fd5b6001600360008473ffffffffffffffffffffffffffffffffffffffff1673ffffffffffffffffffffffffffffffffffffffff16815260200190815260200160002060008282540192505081905550816002600083815260200190815260200160002060006101000a81548173ffffffffffffffffffffffffffffffffffffffff021916908373ffffffffffffffffffffffffffffffffffffffff160217905550808273ffffffffffffffffffffffffffffffffffffffff16600073ffffffffffffffffffffffffffffffffffffffff167fddf252ad1be2c89b69c2b068fc378daa952ba7f163c4a11628f55a4df523b3ef60405160405180910390a46128b460008383600161237e565b5050565b6000808273ffffffffffffffffffffffffffffffffffffffff163b119050919050565b600080600090507a184f03e93ff9f4daa797ed6e38ed64bf6a1f010000000000000000831061295f577a184f03e93ff9f4daa797ed6e38ed64bf6a1f0100000000000000008381612955577f4e487b7100000000000000000000000000000000000000000000000000000000600052601260045260246000fd5b0492506040810190505b6d04ee2d6d415b85acef810000000083106129c2576d04ee2d6d415b85acef810000000083816129b8577f4e487b7100000000000000000000000000000000000000000000000000000000600052601260045260246000fd5b0492506020810190505b662386f26fc100008310612a1757662386f26fc100008381612a0d577f4e487b7100000000000000000000000000000000000000000000000000000000600052601260045260246000fd5b0492506010810190505b6305f5e1008310612a66576305f5e1008381612a5c577f4e487b7100000000000000000000000000000000000000000000000000000000600052601260045260246000fd5b0492506008810190505b6127108310612ab1576127108381612aa7577f4e487b7100000000000000000000000000000000000000000000000000000000600052601260045260246000fd5b0492506004810190505b60648310612afa5760648381612af0577f4e487b7100000000000000000000000000000000000000000000000000000000600052601260045260246000fd5b0492506002810190505b600a8310612b09576001810190505b80915050919050565b6040518060a0016040528060008152602001600073ffffffffffffffffffffffffffffffffffffffff168152602001600073ffffffffffffffffffffffffffffffffffffffff168152602001600081526020016000151581525090565b828054612b7b906139ee565b90600052602060002090601f016020900481019282612b9d5760008555612be4565b82601f10612bb657805160ff1916838001178555612be4565b82800160010185558215612be4579182015b82811115612be3578251825591602001919060010190612bc8565b5b509050612bf19190612bf5565b5090565b5b80821115612c0e576000816000905550600101612bf6565b5090565b6000612c25612c20846137be565b613799565b905082815260208101848484011115612c3d57600080fd5b612c488482856139ac565b509392505050565b6000612c63612c5e846137ef565b613799565b905082815260208101848484011115612c7b57600080fd5b612c868482856139ac565b509392505050565b600081359050612c9d81613f90565b92915050565b600081359050612cb281613fa7565b92915050565b600081359050612cc781613fbe565b92915050565b600081519050612cdc81613fbe565b92915050565b600082601f830112612cf357600080fd5b8135612d03848260208601612c12565b91505092915050565b600082601f830112612d1d57600080fd5b8135612d2d848260208601612c50565b91505092915050565b600081359050612d4581613fd5565b92915050565b600060208284031215612d5d57600080fd5b6000612d6b84828501612c8e565b91505092915050565b60008060408385031215612d8757600080fd5b6000612d9585828601612c8e565b9250506020612da685828601612c8e565b9150509250929050565b600080600060608486031215612dc557600080fd5b6000612dd386828701612c8e565b9350506020612de486828701612c8e565b9250506040612df586828701612d36565b9150509250925092565b60008060008060808587031215612e1557600080fd5b6000612e2387828801612c8e565b9450506020612e3487828801612c8e565b9350506040612e4587828801612d36565b925050606085013567ffffffffffffffff811115612e6257600080fd5b612e6e87828801612ce2565b91505092959194509250565b60008060408385031215612e8d57600080fd5b6000612e9b85828601612c8e565b9250506020612eac85828601612ca3565b9150509250929050565b60008060408385031215612ec957600080fd5b6000612ed785828601612c8e565b9250506020612ee885828601612d36565b9150509250929050565b600060208284031215612f0457600080fd5b6000612f1284828501612cb8565b91505092915050565b600060208284031215612f2d57600080fd5b6000612f3b84828501612ccd565b91505092915050565b60008060408385031215612f5757600080fd5b600083013567ffffffffffffffff811115612f7157600080fd5b612f7d85828601612d0c565b9250506020612f8e85828601612d36565b9150509250929050565b600060208284031215612faa57600080fd5b6000612fb884828501612d36565b91505092915050565b6000612fcd8383613346565b60a08301905092915050565b612fe281613938565b82525050565b612ff181613926565b82525050565b600061300282613830565b61300c818561385e565b935061301783613820565b8060005b8381101561304857815161302f8882612fc1565b975061303a83613851565b92505060018101905061301b565b5085935050505092915050565b61305e8161394a565b82525050565b61306d8161394a565b82525050565b600061307e8261383b565b613088818561386f565b93506130988185602086016139bb565b6130a181613b27565b840191505092915050565b60006130b782613846565b6130c18185613880565b93506130d18185602086016139bb565b6130da81613b27565b840191505092915050565b60006130f082613846565b6130fa8185613891565b935061310a8185602086016139bb565b80840191505092915050565b6000613123602d83613880565b915061312e82613b38565b604082019050919050565b6000613146603283613880565b915061315182613b87565b604082019050919050565b6000613169602583613880565b915061317482613bd6565b604082019050919050565b600061318c601c83613880565b915061319782613c25565b602082019050919050565b60006131af602483613880565b91506131ba82613c4e565b604082019050919050565b60006131d2601983613880565b91506131dd82613c9d565b602082019050919050565b60006131f5602383613880565b915061320082613cc6565b604082019050919050565b6000613218602983613880565b915061322382613d15565b604082019050919050565b600061323b602e83613880565b915061324682613d64565b604082019050919050565b600061325e604083613880565b915061326982613db3565b604082019050919050565b6000613281602083613880565b915061328c82613e02565b602082019050919050565b60006132a4602383613880565b91506132af82613e2b565b604082019050919050565b60006132c7601883613880565b91506132d282613e7a565b602082019050919050565b60006132ea602183613880565b91506132f582613ea3565b604082019050919050565b600061330d603d83613880565b915061331882613ef2565b604082019050919050565b6000613330602283613880565b915061333b82613f41565b604082019050919050565b60a08201600082015161335c6000850182613416565b50602082015161336f6020850182612fd9565b5060408201516133826040850182612fd9565b5060608201516133956060850182613416565b5060808201516133a86080850182613055565b50505050565b60a0820160008201516133c46000850182613416565b5060208201516133d76020850182612fd9565b5060408201516133ea6040850182612fd9565b5060608201516133fd6060850182613416565b5060808201516134106080850182613055565b50505050565b61341f816139a2565b82525050565b61342e816139a2565b82525050565b600061344082856130e5565b915061344c82846130e5565b91508190509392505050565b600060208201905061346d6000830184612fe8565b92915050565b60006080820190506134886000830187612fe8565b6134956020830186612fe8565b6134a26040830185613425565b6134af6060830184613064565b95945050505050565b60006080820190506134cd6000830187612fe8565b6134da6020830186612fe8565b6134e76040830185613425565b81810360608301526134f98184613073565b905095945050505050565b6000602082019050818103600083015261351e8184612ff7565b905092915050565b600060208201905061353b6000830184613064565b92915050565b6000602082019050818103600083015261355b81846130ac565b905092915050565b6000602082019050818103600083015261357c81613116565b9050919050565b6000602082019050818103600083015261359c81613139565b9050919050565b600060208201905081810360008301526135bc8161315c565b9050919050565b600060208201905081810360008301526135dc8161317f565b9050919050565b600060208201905081810360008301526135fc816131a2565b9050919050565b6000602082019050818103600083015261361c816131c5565b9050919050565b6000602082019050818103600083015261363c816131e8565b9050919050565b6000602082019050818103600083015261365c8161320b565b9050919050565b6000602082019050818103600083015261367c8161322e565b9050919050565b6000602082019050818103600083015261369c81613251565b9050919050565b600060208201905081810360008301526136bc81613274565b9050919050565b600060208201905081810360008301526136dc81613297565b9050919050565b600060208201905081810360008301526136fc816132ba565b9050919050565b6000602082019050818103600083015261371c816132dd565b9050919050565b6000602082019050818103600083015261373c81613300565b9050919050565b6000602082019050818103600083015261375c81613323565b9050919050565b600060a08201905061377860008301846133ae565b92915050565b60006020820190506137936000830184613425565b92915050565b60006137a36137b4565b90506137af8282613a20565b919050565b6000604051905090565b600067ffffffffffffffff8211156137d9576137d8613af8565b5b6137e282613b27565b9050602081019050919050565b600067ffffffffffffffff82111561380a57613809613af8565b5b61381382613b27565b9050602081019050919050565b6000819050602082019050919050565b600081519050919050565b600081519050919050565b600081519050919050565b6000602082019050919050565b600082825260208201905092915050565b600082825260208201905092915050565b600082825260208201905092915050565b600081905092915050565b60006138a7826139a2565b91506138b2836139a2565b9250827fffffffffffffffffffffffffffffffffffffffffffffffffffffffffffffffff038211156138e7576138e6613a9a565b5b828201905092915050565b60006138fd826139a2565b9150613908836139a2565b92508282101561391b5761391a613a9a565b5b828203905092915050565b600061393182613982565b9050919050565b600061394382613982565b9050919050565b60008115159050919050565b60007fffffffff0000000000000000000000000000000000000000000000000000000082169050919050565b600073ffffffffffffffffffffffffffffffffffffffff82169050919050565b6000819050919050565b82818337600083830152505050565b60005b838110156139d95780820151818401526020810190506139be565b838111156139e8576000848401525b50505050565b60006002820490506001821680613a0657607f821691505b60208210811415613a1a57613a19613ac9565b5b50919050565b613a2982613b27565b810181811067ffffffffffffffff82111715613a4857613a47613af8565b5b80604052505050565b6000613a5c826139a2565b91507fffffffffffffffffffffffffffffffffffffffffffffffffffffffffffffffff821415613a8f57613a8e613a9a565b5b600182019050919050565b7f4e487b7100000000000000000000000000000000000000000000000000000000600052601160045260246000fd5b7f4e487b7100000000000000000000000000000000000000000000000000000000600052602260045260246000fd5b7f4e487b7100000000000000000000000000000000000000000000000000000000600052604160045260246000fd5b6000601f19601f8301169050919050565b7f4552433732313a2063616c6c6572206973206e6f7420746f6b656e206f776e6560008201527f72206f7220617070726f76656400000000000000000000000000000000000000602082015250565b7f4552433732313a207472616e7366657220746f206e6f6e20455243373231526560008201527f63656976657220696d706c656d656e7465720000000000000000000000000000602082015250565b7f4552433732313a207472616e736665722066726f6d20696e636f72726563742060008201527f6f776e6572000000000000000000000000000000000000000000000000000000602082015250565b7f4552433732313a20746f6b656e20616c7265616479206d696e74656400000000600082015250565b7f4552433732313a207472616e7366657220746f20746865207a65726f2061646460008201527f7265737300000000000000000000000000000000000000000000000000000000602082015250565b7f4552433732313a20617070726f766520746f2063616c6c657200000000000000600082015250565b7f4f6e6c79206f776e65722063616e20757064617465206c697374696e6720707260008201527f6963650000000000000000000000000000000000000000000000000000000000602082015250565b7f4552433732313a2061646472657373207a65726f206973206e6f74206120766160008201527f6c6964206f776e65720000000000000000000000000000000000000000000000602082015250565b7f45524337323155524953746f726167653a2055524920736574206f66206e6f6e60008201527f6578697374656e7420746f6b656e000000000000000000000000000000000000602082015250565b7f506c65617365207375626d6974207468652061736b696e67207072696365206960008201527f6e206f7264657220746f20636f6d706c65746520746865207075726368617365602082015250565b7f4552433732313a206d696e7420746f20746865207a65726f2061646472657373600082015250565b7f486f706566756c6c792073656e64696e672074686520636f727265637420707260008201527f6963650000000000000000000000000000000000000000000000000000000000602082015250565b7f4552433732313a20696e76616c696420746f6b656e2049440000000000000000600082015250565b7f4552433732313a20617070726f76616c20746f2063757272656e74206f776e6560008201527f7200000000000000000000000000000000000000000000000000000000000000602082015250565b7f4552433732313a20617070726f76652063616c6c6572206973206e6f7420746f60008201527f6b656e206f776e6572206f7220617070726f76656420666f7220616c6c000000602082015250565b7f4d616b652073757265207468652070726963652069736e2774206e656761746960008201527f7665000000000000000000000000000000000000000000000000000000000000602082015250565b613f9981613926565b8114613fa457600080fd5b50565b613fb08161394a565b8114613fbb57600080fd5b50565b613fc781613956565b8114613fd257600080fd5b50565b613fde816139a2565b8114613fe957600080fd5b5056fea264697066735822122071f24ece38934e5b29022e9e66f0c101f78210dc1f7f64494a40ce2107c34cee64736f6c63430008040033",
  "linkReferences": {},
  "deployedLinkReferences": {}
}